{"contracts/TokenForgePlans.sol":{"TokenForgePlans":{"abi":[{"inputs":[],"stateMutability":"nonpayable","type":"constructor"},{"anonymous":false,"inputs":[{"indexed":true,"internalType":"address","name":"previousOwner","type":"address"},{"indexed":true,"internalType":"address","name":"newOwner","type":"address"}],"name":"OwnershipTransferred","type":"event"},{"anonymous":false,"inputs":[{"indexed":false,"internalType":"enum TokenForgePlans.PlanType","name":"planType","type":"uint8"},{"indexed":false,"internalType":"uint256","name":"newPrice","type":"uint256"}],"name":"PlanPriceUpdated","type":"event"},{"anonymous":false,"inputs":[{"indexed":true,"internalType":"address","name":"user","type":"address"},{"indexed":false,"internalType":"enum TokenForgePlans.PlanType","name":"planType","type":"uint8"},{"indexed":false,"internalType":"uint256","name":"price","type":"uint256"}],"name":"PlanPurchased","type":"event"},{"inputs":[{"internalType":"address","name":"user","type":"address"}],"name":"getUserPlan","outputs":[{"internalType":"enum TokenForgePlans.PlanType","name":"","type":"uint8"}],"stateMutability":"view","type":"function"},{"inputs":[],"name":"owner","outputs":[{"internalType":"address","name":"","type":"address"}],"stateMutability":"view","type":"function"},{"inputs":[{"internalType":"enum TokenForgePlans.PlanType","name":"","type":"uint8"}],"name":"plans","outputs":[{"internalType":"string","name":"name","type":"string"},{"internalType":"uint256","name":"price","type":"uint256"},{"internalType":"bool","name":"isActive","type":"bool"}],"stateMutability":"view","type":"function"},{"inputs":[{"internalType":"enum TokenForgePlans.PlanType","name":"planType","type":"uint8"}],"name":"purchasePlan","outputs":[],"stateMutability":"payable","type":"function"},{"inputs":[],"name":"renounceOwnership","outputs":[],"stateMutability":"nonpayable","type":"function"},{"inputs":[{"internalType":"address","name":"newOwner","type":"address"}],"name":"transferOwnership","outputs":[],"stateMutability":"nonpayable","type":"function"},{"inputs":[{"internalType":"enum TokenForgePlans.PlanType","name":"planType","type":"uint8"},{"internalType":"uint256","name":"newPrice","type":"uint256"}],"name":"updatePlanPrice","outputs":[],"stateMutability":"nonpayable","type":"function"},{"inputs":[{"internalType":"address","name":"","type":"address"}],"name":"userPlans","outputs":[{"internalType":"enum TokenForgePlans.PlanType","name":"","type":"uint8"}],"stateMutability":"view","type":"function"},{"inputs":[],"name":"withdraw","outputs":[],"stateMutability":"nonpayable","type":"function"}],"evm":{"bytecode":{"linkReferences":{},"object":"60806040523480156200001157600080fd5b506200001d33620001fb565b60018080556040805160a0810182526011606082019081527020b8383932b73a34902337b933b2b937b760791b6080830152815260006020808301829052928201939093529180526002905280517fac33ff75c19e70fe83507db0d683fd3465c996598dc972688b7ace676c89077b9081906200009b9082620002f0565b506020828101516001838101919091556040938401516002938401805460ff1916911515919091179055835160a081018552600860608201908152672337b933b2b937b760c11b60808301528152670429d069189e0000818401529384018190526000525280517fe90b7bceb6e7df5418fb78d8ee546e97c83a08bbccc01a0644d599ccd2a7c2e0908190620001329082620002f0565b506020828101516001838101919091556040938401516002938401805460ff1916911515919091179055835160a081018552600f606082019081526e26b0b4ba3932902337b933b2b937b760891b60808301528152670de0b6b3a7640000818401529384015260008290525280517f679795a0195a1b76cdebb7c51d74e058aee92919b8c3389af86ef24535e8a28c908190620001d09082620002f0565b50602082015160018201556040909101516002909101805460ff1916911515919091179055620003bc565b600080546001600160a01b038381166001600160a01b0319831681178455604051919092169283917f8be0079c531659141344cd1fd0a4f28419497f9722a3daafe3b4186f6b6457e09190a35050565b634e487b7160e01b600052604160045260246000fd5b600181811c908216806200027657607f821691505b6020821081036200029757634e487b7160e01b600052602260045260246000fd5b50919050565b601f821115620002eb57600081815260208120601f850160051c81016020861015620002c65750805b601f850160051c820191505b81811015620002e757828155600101620002d2565b5050505b505050565b81516001600160401b038111156200030c576200030c6200024b565b62000324816200031d845462000261565b846200029d565b602080601f8311600181146200035c5760008415620003435750858301515b600019600386901b1c1916600185901b178555620002e7565b600085815260208120601f198616915b828110156200038d578886015182559484019460019091019084016200036c565b5085821015620003ac5787850151600019600388901b60f8161c191681555b5050505050600190811b01905550565b6108fa80620003cc6000396000f3fe6080604052600436106100865760003560e01c80638da5cb5b116100595780638da5cb5b1461012c5780639869301014610154578063e1076d1514610167578063f2fde38b146101a0578063f5727c33146101c057600080fd5b80633ccfd60b1461008b57806350b61bc1146100a257806360a31a88146100e8578063715018a614610117575b600080fd5b34801561009757600080fd5b506100a06101e0565b005b3480156100ae57600080fd5b506100d26100bd36600461071b565b60036020526000908152604090205460ff1681565b6040516100df9190610783565b60405180910390f35b3480156100f457600080fd5b506101086101033660046107ab565b610225565b6040516100df939291906107c6565b34801561012357600080fd5b506100a06102d3565b34801561013857600080fd5b506000546040516001600160a01b0390911681526020016100df565b6100a06101623660046107ab565b6102e7565b34801561017357600080fd5b506100d261018236600461071b565b6001600160a01b031660009081526003602052604090205460ff1690565b3480156101ac57600080fd5b506100a06101bb36600461071b565b610520565b3480156101cc57600080fd5b506100a06101db366004610824565b610596565b6101e8610618565b600080546040516001600160a01b03909116914780156108fc02929091818181858888f19350505050158015610222573d6000803e3d6000fd5b50565b6002602052600090815260409020805481906102409061084e565b80601f016020809104026020016040519081016040528092919081815260200182805461026c9061084e565b80156102b95780601f1061028e576101008083540402835291602001916102b9565b820191906000526020600020905b81548152906001019060200180831161029c57829003601f168201915b50505050600183015460029093015491929160ff16905083565b6102db610618565b6102e56000610672565b565b6102ef6106c2565b600260008260028111156103055761030561074b565b60028111156103165761031661074b565b815260208101919091526040016000206002015460ff166103735760405162461bcd60e51b8152602060048201526012602482015271506c616e206e6f7420617661696c61626c6560701b60448201526064015b60405180910390fd5b600260008260028111156103895761038961074b565b600281111561039a5761039a61074b565b8152602001908152602001600020600101543410156103f25760405162461bcd60e51b8152602060048201526014602482015273125b9cdd59999a58da595b9d081c185e5b595b9d60621b604482015260640161036a565b336000908152600360205260409020805482919060ff1916600183600281111561041e5761041e61074b565b0217905550336001600160a01b03167f2fbf8c1dd8d445f8a551e40588711473ae38ac73f4e51934877f7da74e1a509e823460405161045e929190610888565b60405180910390a26002600082600281111561047c5761047c61074b565b600281111561048d5761048d61074b565b81526020019081526020016000206001015434111561051757336108fc6002600084828111156104bf576104bf61074b565b60028111156104d0576104d061074b565b815260200190815260200160002060010154346104ed91906108a3565b6040518115909202916000818181858888f19350505050158015610515573d6000803e3d6000fd5b505b61022260018055565b610528610618565b6001600160a01b03811661058d5760405162461bcd60e51b815260206004820152602660248201527f4f776e61626c653a206e6577206f776e657220697320746865207a65726f206160448201526564647265737360d01b606482015260840161036a565b61022281610672565b61059e610618565b80600260008460028111156105b5576105b561074b565b60028111156105c6576105c661074b565b8152602001908152602001600020600101819055507f14966e8c4fba84b78ced280eadb3677e1fd4a0ef8ef8aa11b5fd826774758963828260405161060c929190610888565b60405180910390a15050565b6000546001600160a01b031633146102e55760405162461bcd60e51b815260206004820181905260248201527f4f776e61626c653a2063616c6c6572206973206e6f7420746865206f776e6572604482015260640161036a565b600080546001600160a01b038381166001600160a01b0319831681178455604051919092169283917f8be0079c531659141344cd1fd0a4f28419497f9722a3daafe3b4186f6b6457e09190a35050565b6002600154036107145760405162461bcd60e51b815260206004820152601f60248201527f5265656e7472616e637947756172643a207265656e7472616e742063616c6c00604482015260640161036a565b6002600155565b60006020828403121561072d57600080fd5b81356001600160a01b038116811461074457600080fd5b9392505050565b634e487b7160e01b600052602160045260246000fd5b6003811061077f57634e487b7160e01b600052602160045260246000fd5b9052565b602081016107918284610761565b92915050565b8035600381106107a657600080fd5b919050565b6000602082840312156107bd57600080fd5b61074482610797565b606081526000845180606084015260005b818110156107f457602081880181015160808684010152016107d7565b506000608082850101526080601f19601f8301168401019150508360208301528215156040830152949350505050565b6000806040838503121561083757600080fd5b61084083610797565b946020939093013593505050565b600181811c9082168061086257607f821691505b60208210810361088257634e487b7160e01b600052602260045260246000fd5b50919050565b604081016108968285610761565b8260208301529392505050565b8181038181111561079157634e487b7160e01b600052601160045260246000fdfea26469706673582212201585bda3acf7b7bf7278bf291f3b559eeaed1ae8e952e4003894c83b5b67097d64736f6c63430008130033","opcodes":"PUSH1 0x80 PUSH1 0x40 MSTORE CALLVALUE DUP1 ISZERO PUSH3 0x11 JUMPI PUSH1 0x0 DUP1 REVERT JUMPDEST POP PUSH3 0x1D CALLER PUSH3 0x1FB JUMP JUMPDEST PUSH1 0x1 DUP1 DUP1 SSTORE PUSH1 0x40 DUP1 MLOAD PUSH1 0xA0 DUP2 ADD DUP3 MSTORE PUSH1 0x11 PUSH1 0x60 DUP3 ADD SWAP1 DUP2 MSTORE PUSH17 0x20B8383932B73A34902337B933B2B937B7 PUSH1 0x79 SHL PUSH1 0x80 DUP4 ADD MSTORE DUP2 MSTORE PUSH1 0x0 PUSH1 0x20 DUP1 DUP4 ADD DUP3 SWAP1 MSTORE SWAP3 DUP3 ADD SWAP4 SWAP1 SWAP4 MSTORE SWAP2 DUP1 MSTORE PUSH1 0x2 SWAP1 MSTORE DUP1 MLOAD PUSH32 0xAC33FF75C19E70FE83507DB0D683FD3465C996598DC972688B7ACE676C89077B SWAP1 DUP2 SWAP1 PUSH3 0x9B SWAP1 DUP3 PUSH3 0x2F0 JUMP JUMPDEST POP PUSH1 0x20 DUP3 DUP2 ADD MLOAD PUSH1 0x1 DUP4 DUP2 ADD SWAP2 SWAP1 SWAP2 SSTORE PUSH1 0x40 SWAP4 DUP5 ADD MLOAD PUSH1 0x2 SWAP4 DUP5 ADD DUP1 SLOAD PUSH1 0xFF NOT AND SWAP2 ISZERO ISZERO SWAP2 SWAP1 SWAP2 OR SWAP1 SSTORE DUP4 MLOAD PUSH1 0xA0 DUP2 ADD DUP6 MSTORE PUSH1 0x8 PUSH1 0x60 DUP3 ADD SWAP1 DUP2 MSTORE PUSH8 0x2337B933B2B937B7 PUSH1 0xC1 SHL PUSH1 0x80 DUP4 ADD MSTORE DUP2 MSTORE PUSH8 0x429D069189E0000 DUP2 DUP5 ADD MSTORE SWAP4 DUP5 ADD DUP2 SWAP1 MSTORE PUSH1 0x0 MSTORE MSTORE DUP1 MLOAD PUSH32 0xE90B7BCEB6E7DF5418FB78D8EE546E97C83A08BBCCC01A0644D599CCD2A7C2E0 SWAP1 DUP2 SWAP1 PUSH3 0x132 SWAP1 DUP3 PUSH3 0x2F0 JUMP JUMPDEST POP PUSH1 0x20 DUP3 DUP2 ADD MLOAD PUSH1 0x1 DUP4 DUP2 ADD SWAP2 SWAP1 SWAP2 SSTORE PUSH1 0x40 SWAP4 DUP5 ADD MLOAD PUSH1 0x2 SWAP4 DUP5 ADD DUP1 SLOAD PUSH1 0xFF NOT AND SWAP2 ISZERO ISZERO SWAP2 SWAP1 SWAP2 OR SWAP1 SSTORE DUP4 MLOAD PUSH1 0xA0 DUP2 ADD DUP6 MSTORE PUSH1 0xF PUSH1 0x60 DUP3 ADD SWAP1 DUP2 MSTORE PUSH15 0x26B0B4BA3932902337B933B2B937B7 PUSH1 0x89 SHL PUSH1 0x80 DUP4 ADD MSTORE DUP2 MSTORE PUSH8 0xDE0B6B3A7640000 DUP2 DUP5 ADD MSTORE SWAP4 DUP5 ADD MSTORE PUSH1 0x0 DUP3 SWAP1 MSTORE MSTORE DUP1 MLOAD PUSH32 0x679795A0195A1B76CDEBB7C51D74E058AEE92919B8C3389AF86EF24535E8A28C SWAP1 DUP2 SWAP1 PUSH3 0x1D0 SWAP1 DUP3 PUSH3 0x2F0 JUMP JUMPDEST POP PUSH1 0x20 DUP3 ADD MLOAD PUSH1 0x1 DUP3 ADD SSTORE PUSH1 0x40 SWAP1 SWAP2 ADD MLOAD PUSH1 0x2 SWAP1 SWAP2 ADD DUP1 SLOAD PUSH1 0xFF NOT AND SWAP2 ISZERO ISZERO SWAP2 SWAP1 SWAP2 OR SWAP1 SSTORE PUSH3 0x3BC JUMP JUMPDEST PUSH1 0x0 DUP1 SLOAD PUSH1 0x1 PUSH1 0x1 PUSH1 0xA0 SHL SUB DUP4 DUP2 AND PUSH1 0x1 PUSH1 0x1 PUSH1 0xA0 SHL SUB NOT DUP4 AND DUP2 OR DUP5 SSTORE PUSH1 0x40 MLOAD SWAP2 SWAP1 SWAP3 AND SWAP3 DUP4 SWAP2 PUSH32 0x8BE0079C531659141344CD1FD0A4F28419497F9722A3DAAFE3B4186F6B6457E0 SWAP2 SWAP1 LOG3 POP POP JUMP JUMPDEST PUSH4 0x4E487B71 PUSH1 0xE0 SHL PUSH1 0x0 MSTORE PUSH1 0x41 PUSH1 0x4 MSTORE PUSH1 0x24 PUSH1 0x0 REVERT JUMPDEST PUSH1 0x1 DUP2 DUP2 SHR SWAP1 DUP3 AND DUP1 PUSH3 0x276 JUMPI PUSH1 0x7F DUP3 AND SWAP2 POP JUMPDEST PUSH1 0x20 DUP3 LT DUP2 SUB PUSH3 0x297 JUMPI PUSH4 0x4E487B71 PUSH1 0xE0 SHL PUSH1 0x0 MSTORE PUSH1 0x22 PUSH1 0x4 MSTORE PUSH1 0x24 PUSH1 0x0 REVERT JUMPDEST POP SWAP2 SWAP1 POP JUMP JUMPDEST PUSH1 0x1F DUP3 GT ISZERO PUSH3 0x2EB JUMPI PUSH1 0x0 DUP2 DUP2 MSTORE PUSH1 0x20 DUP2 KECCAK256 PUSH1 0x1F DUP6 ADD PUSH1 0x5 SHR DUP2 ADD PUSH1 0x20 DUP7 LT ISZERO PUSH3 0x2C6 JUMPI POP DUP1 JUMPDEST PUSH1 0x1F DUP6 ADD PUSH1 0x5 SHR DUP3 ADD SWAP2 POP JUMPDEST DUP2 DUP2 LT ISZERO PUSH3 0x2E7 JUMPI DUP3 DUP2 SSTORE PUSH1 0x1 ADD PUSH3 0x2D2 JUMP JUMPDEST POP POP POP JUMPDEST POP POP POP JUMP JUMPDEST DUP2 MLOAD PUSH1 0x1 PUSH1 0x1 PUSH1 0x40 SHL SUB DUP2 GT ISZERO PUSH3 0x30C JUMPI PUSH3 0x30C PUSH3 0x24B JUMP JUMPDEST PUSH3 0x324 DUP2 PUSH3 0x31D DUP5 SLOAD PUSH3 0x261 JUMP JUMPDEST DUP5 PUSH3 0x29D JUMP JUMPDEST PUSH1 0x20 DUP1 PUSH1 0x1F DUP4 GT PUSH1 0x1 DUP2 EQ PUSH3 0x35C JUMPI PUSH1 0x0 DUP5 ISZERO PUSH3 0x343 JUMPI POP DUP6 DUP4 ADD MLOAD JUMPDEST PUSH1 0x0 NOT PUSH1 0x3 DUP7 SWAP1 SHL SHR NOT AND PUSH1 0x1 DUP6 SWAP1 SHL OR DUP6 SSTORE PUSH3 0x2E7 JUMP JUMPDEST PUSH1 0x0 DUP6 DUP2 MSTORE PUSH1 0x20 DUP2 KECCAK256 PUSH1 0x1F NOT DUP7 AND SWAP2 JUMPDEST DUP3 DUP2 LT ISZERO PUSH3 0x38D JUMPI DUP9 DUP7 ADD MLOAD DUP3 SSTORE SWAP5 DUP5 ADD SWAP5 PUSH1 0x1 SWAP1 SWAP2 ADD SWAP1 DUP5 ADD PUSH3 0x36C JUMP JUMPDEST POP DUP6 DUP3 LT ISZERO PUSH3 0x3AC JUMPI DUP8 DUP6 ADD MLOAD PUSH1 0x0 NOT PUSH1 0x3 DUP9 SWAP1 SHL PUSH1 0xF8 AND SHR NOT AND DUP2 SSTORE JUMPDEST POP POP POP POP POP PUSH1 0x1 SWAP1 DUP2 SHL ADD SWAP1 SSTORE POP JUMP JUMPDEST PUSH2 0x8FA DUP1 PUSH3 0x3CC PUSH1 0x0 CODECOPY PUSH1 0x0 RETURN INVALID PUSH1 0x80 PUSH1 0x40 MSTORE PUSH1 0x4 CALLDATASIZE LT PUSH2 0x86 JUMPI PUSH1 0x0 CALLDATALOAD PUSH1 0xE0 SHR DUP1 PUSH4 0x8DA5CB5B GT PUSH2 0x59 JUMPI DUP1 PUSH4 0x8DA5CB5B EQ PUSH2 0x12C JUMPI DUP1 PUSH4 0x98693010 EQ PUSH2 0x154 JUMPI DUP1 PUSH4 0xE1076D15 EQ PUSH2 0x167 JUMPI DUP1 PUSH4 0xF2FDE38B EQ PUSH2 0x1A0 JUMPI DUP1 PUSH4 0xF5727C33 EQ PUSH2 0x1C0 JUMPI PUSH1 0x0 DUP1 REVERT JUMPDEST DUP1 PUSH4 0x3CCFD60B EQ PUSH2 0x8B JUMPI DUP1 PUSH4 0x50B61BC1 EQ PUSH2 0xA2 JUMPI DUP1 PUSH4 0x60A31A88 EQ PUSH2 0xE8 JUMPI DUP1 PUSH4 0x715018A6 EQ PUSH2 0x117 JUMPI JUMPDEST PUSH1 0x0 DUP1 REVERT JUMPDEST CALLVALUE DUP1 ISZERO PUSH2 0x97 JUMPI PUSH1 0x0 DUP1 REVERT JUMPDEST POP PUSH2 0xA0 PUSH2 0x1E0 JUMP JUMPDEST STOP JUMPDEST CALLVALUE DUP1 ISZERO PUSH2 0xAE JUMPI PUSH1 0x0 DUP1 REVERT JUMPDEST POP PUSH2 0xD2 PUSH2 0xBD CALLDATASIZE PUSH1 0x4 PUSH2 0x71B JUMP JUMPDEST PUSH1 0x3 PUSH1 0x20 MSTORE PUSH1 0x0 SWAP1 DUP2 MSTORE PUSH1 0x40 SWAP1 KECCAK256 SLOAD PUSH1 0xFF AND DUP2 JUMP JUMPDEST PUSH1 0x40 MLOAD PUSH2 0xDF SWAP2 SWAP1 PUSH2 0x783 JUMP JUMPDEST PUSH1 0x40 MLOAD DUP1 SWAP2 SUB SWAP1 RETURN JUMPDEST CALLVALUE DUP1 ISZERO PUSH2 0xF4 JUMPI PUSH1 0x0 DUP1 REVERT JUMPDEST POP PUSH2 0x108 PUSH2 0x103 CALLDATASIZE PUSH1 0x4 PUSH2 0x7AB JUMP JUMPDEST PUSH2 0x225 JUMP JUMPDEST PUSH1 0x40 MLOAD PUSH2 0xDF SWAP4 SWAP3 SWAP2 SWAP1 PUSH2 0x7C6 JUMP JUMPDEST CALLVALUE DUP1 ISZERO PUSH2 0x123 JUMPI PUSH1 0x0 DUP1 REVERT JUMPDEST POP PUSH2 0xA0 PUSH2 0x2D3 JUMP JUMPDEST CALLVALUE DUP1 ISZERO PUSH2 0x138 JUMPI PUSH1 0x0 DUP1 REVERT JUMPDEST POP PUSH1 0x0 SLOAD PUSH1 0x40 MLOAD PUSH1 0x1 PUSH1 0x1 PUSH1 0xA0 SHL SUB SWAP1 SWAP2 AND DUP2 MSTORE PUSH1 0x20 ADD PUSH2 0xDF JUMP JUMPDEST PUSH2 0xA0 PUSH2 0x162 CALLDATASIZE PUSH1 0x4 PUSH2 0x7AB JUMP JUMPDEST PUSH2 0x2E7 JUMP JUMPDEST CALLVALUE DUP1 ISZERO PUSH2 0x173 JUMPI PUSH1 0x0 DUP1 REVERT JUMPDEST POP PUSH2 0xD2 PUSH2 0x182 CALLDATASIZE PUSH1 0x4 PUSH2 0x71B JUMP JUMPDEST PUSH1 0x1 PUSH1 0x1 PUSH1 0xA0 SHL SUB AND PUSH1 0x0 SWAP1 DUP2 MSTORE PUSH1 0x3 PUSH1 0x20 MSTORE PUSH1 0x40 SWAP1 KECCAK256 SLOAD PUSH1 0xFF AND SWAP1 JUMP JUMPDEST CALLVALUE DUP1 ISZERO PUSH2 0x1AC JUMPI PUSH1 0x0 DUP1 REVERT JUMPDEST POP PUSH2 0xA0 PUSH2 0x1BB CALLDATASIZE PUSH1 0x4 PUSH2 0x71B JUMP JUMPDEST PUSH2 0x520 JUMP JUMPDEST CALLVALUE DUP1 ISZERO PUSH2 0x1CC JUMPI PUSH1 0x0 DUP1 REVERT JUMPDEST POP PUSH2 0xA0 PUSH2 0x1DB CALLDATASIZE PUSH1 0x4 PUSH2 0x824 JUMP JUMPDEST PUSH2 0x596 JUMP JUMPDEST PUSH2 0x1E8 PUSH2 0x618 JUMP JUMPDEST PUSH1 0x0 DUP1 SLOAD PUSH1 0x40 MLOAD PUSH1 0x1 PUSH1 0x1 PUSH1 0xA0 SHL SUB SWAP1 SWAP2 AND SWAP2 SELFBALANCE DUP1 ISZERO PUSH2 0x8FC MUL SWAP3 SWAP1 SWAP2 DUP2 DUP2 DUP2 DUP6 DUP9 DUP9 CALL SWAP4 POP POP POP POP ISZERO DUP1 ISZERO PUSH2 0x222 JUMPI RETURNDATASIZE PUSH1 0x0 DUP1 RETURNDATACOPY RETURNDATASIZE PUSH1 0x0 REVERT JUMPDEST POP JUMP JUMPDEST PUSH1 0x2 PUSH1 0x20 MSTORE PUSH1 0x0 SWAP1 DUP2 MSTORE PUSH1 0x40 SWAP1 KECCAK256 DUP1 SLOAD DUP2 SWAP1 PUSH2 0x240 SWAP1 PUSH2 0x84E JUMP JUMPDEST DUP1 PUSH1 0x1F ADD PUSH1 0x20 DUP1 SWAP2 DIV MUL PUSH1 0x20 ADD PUSH1 0x40 MLOAD SWAP1 DUP2 ADD PUSH1 0x40 MSTORE DUP1 SWAP3 SWAP2 SWAP1 DUP2 DUP2 MSTORE PUSH1 0x20 ADD DUP3 DUP1 SLOAD PUSH2 0x26C SWAP1 PUSH2 0x84E JUMP JUMPDEST DUP1 ISZERO PUSH2 0x2B9 JUMPI DUP1 PUSH1 0x1F LT PUSH2 0x28E JUMPI PUSH2 0x100 DUP1 DUP4 SLOAD DIV MUL DUP4 MSTORE SWAP2 PUSH1 0x20 ADD SWAP2 PUSH2 0x2B9 JUMP JUMPDEST DUP3 ADD SWAP2 SWAP1 PUSH1 0x0 MSTORE PUSH1 0x20 PUSH1 0x0 KECCAK256 SWAP1 JUMPDEST DUP2 SLOAD DUP2 MSTORE SWAP1 PUSH1 0x1 ADD SWAP1 PUSH1 0x20 ADD DUP1 DUP4 GT PUSH2 0x29C JUMPI DUP3 SWAP1 SUB PUSH1 0x1F AND DUP3 ADD SWAP2 JUMPDEST POP POP POP POP PUSH1 0x1 DUP4 ADD SLOAD PUSH1 0x2 SWAP1 SWAP4 ADD SLOAD SWAP2 SWAP3 SWAP2 PUSH1 0xFF AND SWAP1 POP DUP4 JUMP JUMPDEST PUSH2 0x2DB PUSH2 0x618 JUMP JUMPDEST PUSH2 0x2E5 PUSH1 0x0 PUSH2 0x672 JUMP JUMPDEST JUMP JUMPDEST PUSH2 0x2EF PUSH2 0x6C2 JUMP JUMPDEST PUSH1 0x2 PUSH1 0x0 DUP3 PUSH1 0x2 DUP2 GT ISZERO PUSH2 0x305 JUMPI PUSH2 0x305 PUSH2 0x74B JUMP JUMPDEST PUSH1 0x2 DUP2 GT ISZERO PUSH2 0x316 JUMPI PUSH2 0x316 PUSH2 0x74B JUMP JUMPDEST DUP2 MSTORE PUSH1 0x20 DUP2 ADD SWAP2 SWAP1 SWAP2 MSTORE PUSH1 0x40 ADD PUSH1 0x0 KECCAK256 PUSH1 0x2 ADD SLOAD PUSH1 0xFF AND PUSH2 0x373 JUMPI PUSH1 0x40 MLOAD PUSH3 0x461BCD PUSH1 0xE5 SHL DUP2 MSTORE PUSH1 0x20 PUSH1 0x4 DUP3 ADD MSTORE PUSH1 0x12 PUSH1 0x24 DUP3 ADD MSTORE PUSH18 0x506C616E206E6F7420617661696C61626C65 PUSH1 0x70 SHL PUSH1 0x44 DUP3 ADD MSTORE PUSH1 0x64 ADD JUMPDEST PUSH1 0x40 MLOAD DUP1 SWAP2 SUB SWAP1 REVERT JUMPDEST PUSH1 0x2 PUSH1 0x0 DUP3 PUSH1 0x2 DUP2 GT ISZERO PUSH2 0x389 JUMPI PUSH2 0x389 PUSH2 0x74B JUMP JUMPDEST PUSH1 0x2 DUP2 GT ISZERO PUSH2 0x39A JUMPI PUSH2 0x39A PUSH2 0x74B JUMP JUMPDEST DUP2 MSTORE PUSH1 0x20 ADD SWAP1 DUP2 MSTORE PUSH1 0x20 ADD PUSH1 0x0 KECCAK256 PUSH1 0x1 ADD SLOAD CALLVALUE LT ISZERO PUSH2 0x3F2 JUMPI PUSH1 0x40 MLOAD PUSH3 0x461BCD PUSH1 0xE5 SHL DUP2 MSTORE PUSH1 0x20 PUSH1 0x4 DUP3 ADD MSTORE PUSH1 0x14 PUSH1 0x24 DUP3 ADD MSTORE PUSH20 0x125B9CDD59999A58DA595B9D081C185E5B595B9D PUSH1 0x62 SHL PUSH1 0x44 DUP3 ADD MSTORE PUSH1 0x64 ADD PUSH2 0x36A JUMP JUMPDEST CALLER PUSH1 0x0 SWAP1 DUP2 MSTORE PUSH1 0x3 PUSH1 0x20 MSTORE PUSH1 0x40 SWAP1 KECCAK256 DUP1 SLOAD DUP3 SWAP2 SWAP1 PUSH1 0xFF NOT AND PUSH1 0x1 DUP4 PUSH1 0x2 DUP2 GT ISZERO PUSH2 0x41E JUMPI PUSH2 0x41E PUSH2 0x74B JUMP JUMPDEST MUL OR SWAP1 SSTORE POP CALLER PUSH1 0x1 PUSH1 0x1 PUSH1 0xA0 SHL SUB AND PUSH32 0x2FBF8C1DD8D445F8A551E40588711473AE38AC73F4E51934877F7DA74E1A509E DUP3 CALLVALUE PUSH1 0x40 MLOAD PUSH2 0x45E SWAP3 SWAP2 SWAP1 PUSH2 0x888 JUMP JUMPDEST PUSH1 0x40 MLOAD DUP1 SWAP2 SUB SWAP1 LOG2 PUSH1 0x2 PUSH1 0x0 DUP3 PUSH1 0x2 DUP2 GT ISZERO PUSH2 0x47C JUMPI PUSH2 0x47C PUSH2 0x74B JUMP JUMPDEST PUSH1 0x2 DUP2 GT ISZERO PUSH2 0x48D JUMPI PUSH2 0x48D PUSH2 0x74B JUMP JUMPDEST DUP2 MSTORE PUSH1 0x20 ADD SWAP1 DUP2 MSTORE PUSH1 0x20 ADD PUSH1 0x0 KECCAK256 PUSH1 0x1 ADD SLOAD CALLVALUE GT ISZERO PUSH2 0x517 JUMPI CALLER PUSH2 0x8FC PUSH1 0x2 PUSH1 0x0 DUP5 DUP3 DUP2 GT ISZERO PUSH2 0x4BF JUMPI PUSH2 0x4BF PUSH2 0x74B JUMP JUMPDEST PUSH1 0x2 DUP2 GT ISZERO PUSH2 0x4D0 JUMPI PUSH2 0x4D0 PUSH2 0x74B JUMP JUMPDEST DUP2 MSTORE PUSH1 0x20 ADD SWAP1 DUP2 MSTORE PUSH1 0x20 ADD PUSH1 0x0 KECCAK256 PUSH1 0x1 ADD SLOAD CALLVALUE PUSH2 0x4ED SWAP2 SWAP1 PUSH2 0x8A3 JUMP JUMPDEST PUSH1 0x40 MLOAD DUP2 ISZERO SWAP1 SWAP3 MUL SWAP2 PUSH1 0x0 DUP2 DUP2 DUP2 DUP6 DUP9 DUP9 CALL SWAP4 POP POP POP POP ISZERO DUP1 ISZERO PUSH2 0x515 JUMPI RETURNDATASIZE PUSH1 0x0 DUP1 RETURNDATACOPY RETURNDATASIZE PUSH1 0x0 REVERT JUMPDEST POP JUMPDEST PUSH2 0x222 PUSH1 0x1 DUP1 SSTORE JUMP JUMPDEST PUSH2 0x528 PUSH2 0x618 JUMP JUMPDEST PUSH1 0x1 PUSH1 0x1 PUSH1 0xA0 SHL SUB DUP2 AND PUSH2 0x58D JUMPI PUSH1 0x40 MLOAD PUSH3 0x461BCD PUSH1 0xE5 SHL DUP2 MSTORE PUSH1 0x20 PUSH1 0x4 DUP3 ADD MSTORE PUSH1 0x26 PUSH1 0x24 DUP3 ADD MSTORE PUSH32 0x4F776E61626C653A206E6577206F776E657220697320746865207A65726F2061 PUSH1 0x44 DUP3 ADD MSTORE PUSH6 0x646472657373 PUSH1 0xD0 SHL PUSH1 0x64 DUP3 ADD MSTORE PUSH1 0x84 ADD PUSH2 0x36A JUMP JUMPDEST PUSH2 0x222 DUP2 PUSH2 0x672 JUMP JUMPDEST PUSH2 0x59E PUSH2 0x618 JUMP JUMPDEST DUP1 PUSH1 0x2 PUSH1 0x0 DUP5 PUSH1 0x2 DUP2 GT ISZERO PUSH2 0x5B5 JUMPI PUSH2 0x5B5 PUSH2 0x74B JUMP JUMPDEST PUSH1 0x2 DUP2 GT ISZERO PUSH2 0x5C6 JUMPI PUSH2 0x5C6 PUSH2 0x74B JUMP JUMPDEST DUP2 MSTORE PUSH1 0x20 ADD SWAP1 DUP2 MSTORE PUSH1 0x20 ADD PUSH1 0x0 KECCAK256 PUSH1 0x1 ADD DUP2 SWAP1 SSTORE POP PUSH32 0x14966E8C4FBA84B78CED280EADB3677E1FD4A0EF8EF8AA11B5FD826774758963 DUP3 DUP3 PUSH1 0x40 MLOAD PUSH2 0x60C SWAP3 SWAP2 SWAP1 PUSH2 0x888 JUMP JUMPDEST PUSH1 0x40 MLOAD DUP1 SWAP2 SUB SWAP1 LOG1 POP POP JUMP JUMPDEST PUSH1 0x0 SLOAD PUSH1 0x1 PUSH1 0x1 PUSH1 0xA0 SHL SUB AND CALLER EQ PUSH2 0x2E5 JUMPI PUSH1 0x40 MLOAD PUSH3 0x461BCD PUSH1 0xE5 SHL DUP2 MSTORE PUSH1 0x20 PUSH1 0x4 DUP3 ADD DUP2 SWAP1 MSTORE PUSH1 0x24 DUP3 ADD MSTORE PUSH32 0x4F776E61626C653A2063616C6C6572206973206E6F7420746865206F776E6572 PUSH1 0x44 DUP3 ADD MSTORE PUSH1 0x64 ADD PUSH2 0x36A JUMP JUMPDEST PUSH1 0x0 DUP1 SLOAD PUSH1 0x1 PUSH1 0x1 PUSH1 0xA0 SHL SUB DUP4 DUP2 AND PUSH1 0x1 PUSH1 0x1 PUSH1 0xA0 SHL SUB NOT DUP4 AND DUP2 OR DUP5 SSTORE PUSH1 0x40 MLOAD SWAP2 SWAP1 SWAP3 AND SWAP3 DUP4 SWAP2 PUSH32 0x8BE0079C531659141344CD1FD0A4F28419497F9722A3DAAFE3B4186F6B6457E0 SWAP2 SWAP1 LOG3 POP POP JUMP JUMPDEST PUSH1 0x2 PUSH1 0x1 SLOAD SUB PUSH2 0x714 JUMPI PUSH1 0x40 MLOAD PUSH3 0x461BCD PUSH1 0xE5 SHL DUP2 MSTORE PUSH1 0x20 PUSH1 0x4 DUP3 ADD MSTORE PUSH1 0x1F PUSH1 0x24 DUP3 ADD MSTORE PUSH32 0x5265656E7472616E637947756172643A207265656E7472616E742063616C6C00 PUSH1 0x44 DUP3 ADD MSTORE PUSH1 0x64 ADD PUSH2 0x36A JUMP JUMPDEST PUSH1 0x2 PUSH1 0x1 SSTORE JUMP JUMPDEST PUSH1 0x0 PUSH1 0x20 DUP3 DUP5 SUB SLT ISZERO PUSH2 0x72D JUMPI PUSH1 0x0 DUP1 REVERT JUMPDEST DUP2 CALLDATALOAD PUSH1 0x1 PUSH1 0x1 PUSH1 0xA0 SHL SUB DUP2 AND DUP2 EQ PUSH2 0x744 JUMPI PUSH1 0x0 DUP1 REVERT JUMPDEST SWAP4 SWAP3 POP POP POP JUMP JUMPDEST PUSH4 0x4E487B71 PUSH1 0xE0 SHL PUSH1 0x0 MSTORE PUSH1 0x21 PUSH1 0x4 MSTORE PUSH1 0x24 PUSH1 0x0 REVERT JUMPDEST PUSH1 0x3 DUP2 LT PUSH2 0x77F JUMPI PUSH4 0x4E487B71 PUSH1 0xE0 SHL PUSH1 0x0 MSTORE PUSH1 0x21 PUSH1 0x4 MSTORE PUSH1 0x24 PUSH1 0x0 REVERT JUMPDEST SWAP1 MSTORE JUMP JUMPDEST PUSH1 0x20 DUP2 ADD PUSH2 0x791 DUP3 DUP5 PUSH2 0x761 JUMP JUMPDEST SWAP3 SWAP2 POP POP JUMP JUMPDEST DUP1 CALLDATALOAD PUSH1 0x3 DUP2 LT PUSH2 0x7A6 JUMPI PUSH1 0x0 DUP1 REVERT JUMPDEST SWAP2 SWAP1 POP JUMP JUMPDEST PUSH1 0x0 PUSH1 0x20 DUP3 DUP5 SUB SLT ISZERO PUSH2 0x7BD JUMPI PUSH1 0x0 DUP1 REVERT JUMPDEST PUSH2 0x744 DUP3 PUSH2 0x797 JUMP JUMPDEST PUSH1 0x60 DUP2 MSTORE PUSH1 0x0 DUP5 MLOAD DUP1 PUSH1 0x60 DUP5 ADD MSTORE PUSH1 0x0 JUMPDEST DUP2 DUP2 LT ISZERO PUSH2 0x7F4 JUMPI PUSH1 0x20 DUP2 DUP9 ADD DUP2 ADD MLOAD PUSH1 0x80 DUP7 DUP5 ADD ADD MSTORE ADD PUSH2 0x7D7 JUMP JUMPDEST POP PUSH1 0x0 PUSH1 0x80 DUP3 DUP6 ADD ADD MSTORE PUSH1 0x80 PUSH1 0x1F NOT PUSH1 0x1F DUP4 ADD AND DUP5 ADD ADD SWAP2 POP POP DUP4 PUSH1 0x20 DUP4 ADD MSTORE DUP3 ISZERO ISZERO PUSH1 0x40 DUP4 ADD MSTORE SWAP5 SWAP4 POP POP POP POP JUMP JUMPDEST PUSH1 0x0 DUP1 PUSH1 0x40 DUP4 DUP6 SUB SLT ISZERO PUSH2 0x837 JUMPI PUSH1 0x0 DUP1 REVERT JUMPDEST PUSH2 0x840 DUP4 PUSH2 0x797 JUMP JUMPDEST SWAP5 PUSH1 0x20 SWAP4 SWAP1 SWAP4 ADD CALLDATALOAD SWAP4 POP POP POP JUMP JUMPDEST PUSH1 0x1 DUP2 DUP2 SHR SWAP1 DUP3 AND DUP1 PUSH2 0x862 JUMPI PUSH1 0x7F DUP3 AND SWAP2 POP JUMPDEST PUSH1 0x20 DUP3 LT DUP2 SUB PUSH2 0x882 JUMPI PUSH4 0x4E487B71 PUSH1 0xE0 SHL PUSH1 0x0 MSTORE PUSH1 0x22 PUSH1 0x4 MSTORE PUSH1 0x24 PUSH1 0x0 REVERT JUMPDEST POP SWAP2 SWAP1 POP JUMP JUMPDEST PUSH1 0x40 DUP2 ADD PUSH2 0x896 DUP3 DUP6 PUSH2 0x761 JUMP JUMPDEST DUP3 PUSH1 0x20 DUP4 ADD MSTORE SWAP4 SWAP3 POP POP POP JUMP JUMPDEST DUP2 DUP2 SUB DUP2 DUP2 GT ISZERO PUSH2 0x791 JUMPI PUSH4 0x4E487B71 PUSH1 0xE0 SHL PUSH1 0x0 MSTORE PUSH1 0x11 PUSH1 0x4 MSTORE PUSH1 0x24 PUSH1 0x0 REVERT INVALID LOG2 PUSH5 0x6970667358 0x22 SLT KECCAK256 ISZERO DUP6 0xBD LOG3 0xAC 0xF7 0xB7 0xBF PUSH19 0x78BF291F3B559EEAED1AE8E952E4003894C83B JUMPDEST PUSH8 0x97D64736F6C6343 STOP ADDMOD SGT STOP CALLER "},"methodIdentifiers":{"getUserPlan(address)":"e1076d15","owner()":"8da5cb5b","plans(uint8)":"60a31a88","purchasePlan(uint8)":"98693010","renounceOwnership()":"715018a6","transferOwnership(address)":"f2fde38b","updatePlanPrice(uint8,uint256)":"f5727c33","userPlans(address)":"50b61bc1","withdraw()":"3ccfd60b"}}}}}