{
  "_format": "hh-sol-artifact-1",
  "contractName": "TokenFactory",
  "sourceName": "contracts/TokenFactory.sol",
  "abi": [
    {
      "inputs": [],
      "stateMutability": "nonpayable",
      "type": "constructor"
    },
    {
      "anonymous": false,
      "inputs": [
        {
          "indexed": true,
          "internalType": "address",
          "name": "previousOwner",
          "type": "address"
        },
        {
          "indexed": true,
          "internalType": "address",
          "name": "newOwner",
          "type": "address"
        }
      ],
      "name": "OwnershipTransferred",
      "type": "event"
    },
    {
      "anonymous": false,
      "inputs": [
        {
          "indexed": false,
          "internalType": "address",
          "name": "account",
          "type": "address"
        }
      ],
      "name": "Paused",
      "type": "event"
    },
    {
      "anonymous": false,
      "inputs": [
        {
          "indexed": true,
          "internalType": "address",
          "name": "creator",
          "type": "address"
        },
        {
          "indexed": false,
          "internalType": "string",
          "name": "name",
          "type": "string"
        },
        {
          "indexed": false,
          "internalType": "string",
          "name": "symbol",
          "type": "string"
        }
      ],
      "name": "TokenCreated",
      "type": "event"
    },
    {
      "anonymous": false,
      "inputs": [
        {
          "indexed": false,
          "internalType": "address",
          "name": "account",
          "type": "address"
        }
      ],
      "name": "Unpaused",
      "type": "event"
    },
    {
      "inputs": [],
      "name": "pause",
      "outputs": [],
      "stateMutability": "nonpayable",
      "type": "function"
    },
    {
      "inputs": [],
      "name": "paused",
      "outputs": [
        {
          "internalType": "bool",
          "name": "",
          "type": "bool"
        }
      ],
      "stateMutability": "view",
      "type": "function"
    },
    {
      "inputs": [],
      "name": "unpause",
      "outputs": [],
      "stateMutability": "nonpayable",
      "type": "function"
    },
    {
      "inputs": [
        {
          "internalType": "string",
          "name": "name",
          "type": "string"
        },
        {
          "internalType": "string",
          "name": "symbol",
          "type": "string"
        },
        {
          "internalType": "uint8",
          "name": "decimals",
          "type": "uint8"
        },
        {
          "internalType": "uint256",
          "name": "initialSupply",
          "type": "uint256"
        },
        {
          "internalType": "uint256",
          "name": "maxSupply",
          "type": "uint256"
        },
        {
          "internalType": "bool",
          "name": "isBurnable",
          "type": "bool"
        },
        {
          "internalType": "bool",
          "name": "isMintable",
          "type": "bool"
        }
      ],
      "name": "createToken",
      "outputs": [
        {
          "internalType": "address",
          "name": "",
          "type": "address"
        }
      ],
      "stateMutability": "nonpayable",
      "type": "function"
    },
    {
      "inputs": [
        {
          "internalType": "address",
          "name": "",
          "type": "address"
        }
      ],
      "name": "isTokenCreated",
      "outputs": [
        {
          "internalType": "bool",
          "name": "",
          "type": "bool"
        }
      ],
      "stateMutability": "view",
      "type": "function"
    },
    {
      "inputs": [],
      "name": "owner",
      "outputs": [
        {
          "internalType": "address",
          "name": "",
          "type": "address"
        }
      ],
      "stateMutability": "view",
      "type": "function"
    },
    {
      "inputs": [
        {
          "internalType": "address",
          "name": "newOwner",
          "type": "address"
        }
      ],
      "name": "transferOwnership",
      "outputs": [],
      "stateMutability": "nonpayable",
      "type": "function"
    },
    {
      "inputs": [],
      "name": "renounceOwnership",
      "outputs": [],
      "stateMutability": "nonpayable",
      "type": "function"
    }
  ],
  "bytecode": "0x608060405234801561001057600080fd5b50600436106101585760003560e01c8063045c656d146200006f5780630cb16d7914620000a35780635b303ed414620000da578063715018a614620000f15780638da5cb5b14620000fd578063f2fde38b146200010f575b600080fd5b620000866200008036600462000592565b62000126565b6040516001600160a01b0390911681526020015b60405180910390f35b620000c9620000b43660046200064e565b60016020526000908152604090205460ff1681565b60405190151581526020016200009a565b62000086620000eb36600462000592565b6200024f565b620000fb62000315565b005b6000546001600160a01b031662000086565b620000fb620001203660046200064e565b6200032d565b600080841180156200013757508385115b15620001565760405163c2c5358f60e01b815260040160405180910390fd5b6000604051806020016200016a90620004d9565b601f1982820381018352601f9091011660408190526200019b908b908b908b908b908b908b903390602001620006cd565b60408051601f1981840301815290829052620001bb92916020016200072f565b60405160208183030381529060405290506000620001dc6000858462000375565b6001600160a01b038116600081815260016020819052604091829020805460ff191690911790555191925033917f38149658d2cce21a1f05009bdf465f07ab5167c5f3c102c69b73383f06475edc906200023a908e908e9062000762565b60405180910390a39998505050505050505050565b600080841180156200026057508385115b156200027f5760405163c2c5358f60e01b815260040160405180910390fd5b6000604051806020016200029390620004d9565b601f1982820381018352601f909101166040819052620002c4908b908b908b908b908b908b903390602001620006cd565b60408051601f1981840301815290829052620002e492916020016200072f565b60405160208183030381529060405290506200030883828051906020012062000418565b9998505050505050505050565b6200031f62000427565b6200032b600062000456565b565b6200033762000427565b6001600160a01b0381166200036757604051631e4fbdf760e01b8152600060048201526024015b60405180910390fd5b620003728162000456565b50565b600083471015620003a35760405163cf47918160e01b8152476004820152602481018590526044016200035e565b8151600003620003c657604051631328927760e21b815260040160405180910390fd5b8282516020840186f590503d151981151615620003e9576040513d6000823e3d81fd5b6001600160a01b038116620004115760405163b06ebf3d60e01b815260040160405180910390fd5b9392505050565b600062000411838330620004a6565b6000546001600160a01b031633146200032b5760405163118cdaa760e01b81523360048201526024016200035e565b600080546001600160a01b038381166001600160a01b0319831681178455604051919092169283917f8be0079c531659141344cd1fd0a4f28419497f9722a3daafe3b4186f6b6457e09190a35050565b6000604051836040820152846020820152828152600b8101905060ff8153605590206001600160a01b0316949350505050565b611b6c80620007b383390190565b634e487b7160e01b600052604160045260246000fd5b600082601f8301126200050f57600080fd5b813567ffffffffffffffff808211156200052d576200052d620004e7565b604051601f8301601f19908116603f01168101908282118183101715620005585762000558620004e7565b816040528381528660208588010111156200057257600080fd5b836020870160208301376000602085830101528094505050505092915050565b600080600080600080600060e0888a031215620005ae57600080fd5b873567ffffffffffffffff80821115620005c757600080fd5b620005d58b838c01620004fd565b985060208a0135915080821115620005ec57600080fd5b50620005fb8a828b01620004fd565b965050604088013560ff811681146200061357600080fd5b9450606088013593506080880135925060a088013580151581146200063757600080fd5b8092505060c0880135905092959891949750929550565b6000602082840312156200066157600080fd5b81356001600160a01b03811681146200041157600080fd5b60005b83811015620006965781810151838201526020016200067c565b50506000910152565b60008151808452620006b981602086016020860162000679565b601f01601f19169290920160200192915050565b60e081526000620006e260e083018a6200069f565b8281036020840152620006f6818a6200069f565b60ff989098166040840152505060608101949094526080840192909252151560a08301526001600160a01b031660c09091015292915050565b600083516200074381846020880162000679565b8351908301906200075981836020880162000679565b01949350505050565b6060815260006200077760608301856200069f565b82810360208401526200078b81856200069f565b8381036040948501526005815264045524332360dc1b60208201529290920194935050505056fe6101606040523480156200001257600080fd5b5060405162001b6c38038062001b6c833981016040819052620000359162000530565b808780604051806040016040528060018152602001603160f81b8152508a8a816003908162000065919062000682565b50600462000074828262000682565b50506005805460ff19169055506200008e826006620001b7565b610120526200009f816007620001b7565b61014052815160208084019190912060e052815190820120610100524660a0526200012d60e05161010051604080517f8b73c3c69bb8fe3d512ecc4cf759cc79239f7b179b0ffacaa9a75d522b39400f60208201529081019290925260608201524660808201523060a082015260009060c00160405160208183030381529060405280519060200120905090565b60805250503060c052506001600160a01b0381166200016757604051631e4fbdf760e01b8152600060048201526024015b60405180910390fd5b6200017281620001f0565b506009805460ff60a01b1916600160a01b60ff881602179055600a839055600b805460ff1916831515179055620001aa818562000242565b50505050505050620007ca565b6000602083511015620001d757620001cf8362000280565b9050620001ea565b81620001e4848262000682565b5060ff90505b92915050565b600980546001600160a01b038381166001600160a01b0319831681179093556040519116919082907f8be0079c531659141344cd1fd0a4f28419497f9722a3daafe3b4186f6b6457e090600090a35050565b6001600160a01b0382166200026e5760405163ec442f0560e01b8152600060048201526024016200015e565b6200027c60008383620002c3565b5050565b600080829050601f81511115620002ae578260405163305a27a960e01b81526004016200015e91906200074e565b8051620002bb8262000783565b179392505050565b620002d0838383620002d5565b505050565b620002df620002ec565b620002d083838362000313565b60055460ff1615620003115760405163d93c066560e01b815260040160405180910390fd5b565b6001600160a01b03831662000342578060026000828254620003369190620007a8565b90915550620003b69050565b6001600160a01b03831660009081526020819052604090205481811015620003975760405163391434e360e21b81526001600160a01b038516600482015260248101829052604481018390526064016200015e565b6001600160a01b03841660009081526020819052604090209082900390555b6001600160a01b038216620003d457600280548290039055620003f3565b6001600160a01b03821660009081526020819052604090208054820190555b816001600160a01b0316836001600160a01b03167fddf252ad1be2c89b69c2b068fc378daa952ba7f163c4a11628f55a4df523b3ef836040516200043991815260200190565b60405180910390a3505050565b634e487b7160e01b600052604160045260246000fd5b60005b83811015620004795781810151838201526020016200045f565b50506000910152565b600082601f8301126200049457600080fd5b81516001600160401b0380821115620004b157620004b162000446565b604051601f8301601f19908116603f01168101908282118183101715620004dc57620004dc62000446565b81604052838152866020858801011115620004f657600080fd5b620005098460208301602089016200045c565b9695505050505050565b80516001600160a01b03811681146200052b57600080fd5b919050565b600080600080600080600060e0888a0312156200054c57600080fd5b87516001600160401b03808211156200056457600080fd5b620005728b838c0162000482565b985060208a01519150808211156200058957600080fd5b50620005988a828b0162000482565b965050604088015160ff81168114620005b057600080fd5b80955050606088015193506080880151925060a08801518015158114620005d657600080fd5b9150620005e660c0890162000513565b905092959891949750929550565b600181811c908216806200060957607f821691505b6020821081036200062a57634e487b7160e01b600052602260045260246000fd5b50919050565b601f821115620002d057600081815260208120601f850160051c81016020861015620006595750805b601f850160051c820191505b818110156200067a5782815560010162000665565b505050505050565b81516001600160401b038111156200069e576200069e62000446565b620006b681620006af8454620005f4565b8462000630565b602080601f831160018114620006ee5760008415620006d55750858301515b600019600386901b1c1916600185901b1785556200067a565b600085815260208120601f198616915b828110156200071f57888601518255948401946001909101908401620006fe565b50858210156200073e5787850151600019600388901b60f8161c191681555b5050505050600190811b01905550565b60208152600082518060208401526200076f8160408501602087016200045c565b601f01601f19169190910160400192915050565b805160208083015191908110156200062a5760001960209190910360031b1b16919050565b80820180821115620001ea57634e487b7160e01b600052601160045260246000fd5b60805160a05160c05160e051610100516101205161014051611347620008256000396000610acf01526000610aa2015260006108d0015260006108a8015260006108030152600061082d0152600061085701526113476000f3fe608060405234801561001057600080fd5b50600436106101585760003560e01c8063715018a6116100c357806395d89b411161007c57806395d89b41146102c5578063a9059cbb146102cd578063d505accf146102e0578063d5abeb01146102f3578063dd62ed3e146102fb578063f2fde38b1461033457600080fd5b8063715018a61461025957806379cc6790146102615780637ecebe00146102745780638456cb591461028757806384b0196e1461028f5780638da5cb5b146102aa57600080fd5b80633f4ba83a116101155780633f4ba83a146101ea57806340c10f19146101f457806342966c68146102075780634bf365df1461021a5780635c975abb1461022557806370a082311461023057600080fd5b806306fdde031461015d578063095ea7b31461017b57806318160ddd1461019e57806323b872dd146101b0578063313ce567146101c35780633644e515146101e2575b600080fd5b610165610347565b6040516101729190611094565b60405180910390f35b61018e6101893660046110ca565b6103d9565b6040519015158152602001610172565b6002545b604051908152602001610172565b61018e6101be3660046110f4565b6103f3565b600954600160a01b900460ff1660405160ff9091168152602001610172565b6101a2610417565b6101f2610426565b005b6101f26102023660046110ca565b610438565b6101f2610215366004611130565b6104cc565b600b5460ff1661018e565b60055460ff1661018e565b6101a261023e366004611149565b6001600160a01b031660009081526020819052604090205490565b6101f26104d9565b6101f261026f3660046110ca565b6104eb565b6101a2610282366004611149565b610500565b6101f261051e565b61029761052e565b6040516101729796959493929190611164565b6009546040516001600160a01b039091168152602001610172565b610165610574565b61018e6102db3660046110ca565b610583565b6101f26102ee3660046111fa565b610591565b600a546101a2565b6101a261030936600461126d565b6001600160a01b03918216600090815260016020908152604080832093909416825291909152205490565b6101f2610342366004611149565b6106cb565b606060038054610356906112a0565b80601f0160208091040260200160405190810160405280929190818152602001828054610382906112a0565b80156103cf5780601f106103a4576101008083540402835291602001916103cf565b820191906000526020600020905b8154815290600101906020018083116103b257829003601f168201915b5050505050905090565b6000336103e7818585610706565b60019150505b92915050565b600033610401858285610718565b61040c858585610797565b506001949350505050565b60006104216107f6565b905090565b61042e610921565b61043661094e565b565b610440610921565b600b5460ff166104635760405163af79b43760e01b815260040160405180910390fd5b6000600a541180156104895750600a548161047d60025490565b61048791906112da565b115b156104be57600a54604051637502c12360e11b81526104b5918391600401918252602082015260400190565b60405180910390fd5b6104c882826109a0565b5050565b6104d633826109d6565b50565b6104e1610921565b6104366000610a0c565b6104f6823383610718565b6104c882826109d6565b6001600160a01b0381166000908152600860205260408120546103ed565b610526610921565b610436610a5e565b600060608060008060006060610542610a9b565b61054a610ac8565b60408051600080825260208201909252600f60f81b9b939a50919850469750309650945092509050565b606060048054610356906112a0565b6000336103e7818585610797565b834211156105b55760405163313c898160e11b8152600481018590526024016104b5565b60007f6e71edae12b1b97f4d1f60370fef10105fa2faae0126114a169c64845d6126c98888886106028c6001600160a01b0316600090815260086020526040902080546001810190915590565b6040805160208101969096526001600160a01b0394851690860152929091166060840152608083015260a082015260c0810186905260e001604051602081830303815290604052805190602001209050600061065d82610af5565b9050600061066d82878787610b22565b9050896001600160a01b0316816001600160a01b0316146106b4576040516325c0072360e11b81526001600160a01b0380831660048301528b1660248201526044016104b5565b6106bf8a8a8a610706565b50505050505050505050565b6106d3610921565b6001600160a01b0381166106fd57604051631e4fbdf760e01b8152600060048201526024016104b5565b6104d681610a0c565b6107138383836001610b50565b505050565b6001600160a01b03838116600090815260016020908152604080832093861683529290522054600019811015610791578181101561078257604051637dc7a0d960e11b81526001600160a01b038416600482015260248101829052604481018390526064016104b5565b61079184848484036000610b50565b50505050565b6001600160a01b0383166107c157604051634b637e8f60e11b8152600060048201526024016104b5565b6001600160a01b0382166107eb5760405163ec442f0560e01b8152600060048201526024016104b5565b610713838383610c25565b6000306001600160a01b037f00000000000000000000000000000000000000000000000000000000000000001614801561084f57507f000000000000000000000000000000000000000000000000000000000000000046145b1561087957507f000000000000000000000000000000000000000000000000000000000000000090565b610421604080517f8b73c3c69bb8fe3d512ecc4cf759cc79239f7b179b0ffacaa9a75d522b39400f60208201527f0000000000000000000000000000000000000000000000000000000000000000918101919091527f000000000000000000000000000000000000000000000000000000000000000060608201524660808201523060a082015260009060c00160405160208183030381529060405280519060200120905090565b6009546001600160a01b031633146104365760405163118cdaa760e01b81523360048201526024016104b5565b610956610c30565b6005805460ff191690557f5db9ee0a495bf2e6ff9c91a7834c1ba4fdd244a5e8aa4e537bd38aeae4b073aa335b6040516001600160a01b03909116815260200160405180910390a1565b6001600160a01b0382166109ca5760405163ec442f0560e01b8152600060048201526024016104b5565b6104c860008383610c25565b6001600160a01b038216610a0057604051634b637e8f60e11b8152600060048201526024016104b5565b6104c882600083610c25565b600980546001600160a01b038381166001600160a01b0319831681179093556040519116919082907f8be0079c531659141344cd1fd0a4f28419497f9722a3daafe3b4186f6b6457e090600090a35050565b610a66610c53565b6005805460ff191660011790557f62e78cea01bee320cd4e420270b5ea74000d11b0c9f74754ebdbfc544b05a2586109833390565b60606104217f00000000000000000000000000000000000000000000000000000000000000006006610c77565b60606104217f00000000000000000000000000000000000000000000000000000000000000006007610c77565b60006103ed610b026107f6565b8360405161190160f01b8152600281019290925260228201526042902090565b600080600080610b3488888888610d22565b925092509250610b448282610df1565b50909695505050505050565b6001600160a01b038416610b7a5760405163e602df0560e01b8152600060048201526024016104b5565b6001600160a01b038316610ba457604051634a1406b160e11b8152600060048201526024016104b5565b6001600160a01b038085166000908152600160209081526040808320938716835292905220829055801561079157826001600160a01b0316846001600160a01b03167f8c5be1e5ebec7d5bd14f71427d1e84f3dd0314c0f7b2291e5b200ac8c7c3b92584604051610c1791815260200190565b60405180910390a350505050565b610713838383610eaa565b60055460ff1661043657604051638dfc202b60e01b815260040160405180910390fd5b60055460ff16156104365760405163d93c066560e01b815260040160405180910390fd5b606060ff8314610c9157610c8a83610ebd565b90506103ed565b818054610c9d906112a0565b80601f0160208091040260200160405190810160405280929190818152602001828054610cc9906112a0565b8015610d165780601f10610ceb57610100808354040283529160200191610d16565b820191906000526020600020905b815481529060010190602001808311610cf957829003601f168201915b505050505090506103ed565b600080807f7fffffffffffffffffffffffffffffff5d576e7357a4501ddfe92f46681b20a0841115610d5d5750600091506003905082610de7565b604080516000808252602082018084528a905260ff891692820192909252606081018790526080810186905260019060a0016020604051602081039080840390855afa158015610db1573d6000803e3d6000fd5b5050604051601f1901519150506001600160a01b038116610ddd57506000925060019150829050610de7565b9250600091508190505b9450945094915050565b6000826003811115610e0557610e056112fb565b03610e0e575050565b6001826003811115610e2257610e226112fb565b03610e405760405163f645eedf60e01b815260040160405180910390fd5b6002826003811115610e5457610e546112fb565b03610e755760405163fce698f760e01b8152600481018290526024016104b5565b6003826003811115610e8957610e896112fb565b036104c8576040516335e2f38360e21b8152600481018290526024016104b5565b610eb2610c53565b610713838383610efc565b60606000610eca83611026565b604080516020808252818301909252919250600091906020820181803683375050509182525060208101929092525090565b6001600160a01b038316610f27578060026000828254610f1c91906112da565b90915550610f999050565b6001600160a01b03831660009081526020819052604090205481811015610f7a5760405163391434e360e21b81526001600160a01b038516600482015260248101829052604481018390526064016104b5565b6001600160a01b03841660009081526020819052604090209082900390555b6001600160a01b038216610fb557600280548290039055610fd4565b6001600160a01b03821660009081526020819052604090208054820190555b816001600160a01b0316836001600160a01b03167fddf252ad1be2c89b69c2b068fc378daa952ba7f163c4a11628f55a4df523b3ef8360405161101991815260200190565b60405180910390a3505050565b600060ff8216601f8111156103ed57604051632cd44ac360e21b815260040160405180910390fd5b6000815180845260005b8181101561107457602081850181015186830182015201611058565b506000602082860101526020601f19601f83011685010191505092915050565b6020815260006110a7602083018461104e565b9392505050565b80356001600160a01b03811681146110c557600080fd5b919050565b600080604083850312156110dd57600080fd5b6110e6836110ae565b946020939093013593505050565b60008060006060848603121561110957600080fd5b611112846110ae565b9250611120602085016110ae565b9150604084013590509250925092565b60006020828403121561114257600080fd5b5035919050565b60006020828403121561115b57600080fd5b6110a7826110ae565b60ff60f81b881681526000602060e08184015261118460e084018a61104e565b8381036040850152611196818a61104e565b606085018990526001600160a01b038816608086015260a0850187905284810360c0860152855180825283870192509083019060005b818110156111e8578351835292840192918401916001016111cc565b50909c9b505050505050505050505050565b600080600080600080600060e0888a03121561121557600080fd5b61121e886110ae565b965061122c602089016110ae565b95506040880135945060608801359350608088013560ff8116811461125057600080fd5b9699959850939692959460a0840135945060c09093013592915050565b6000806040838503121561128057600080fd5b611289836110ae565b9150611297602084016110ae565b90509250929050565b600181811c908216806112b457607f821691505b6020821081036112d457634e487b7160e01b600052602260045260246000fd5b50919050565b808201808211156103ed57634e487b7160e01b600052601160045260246000fd5b634e487b7160e01b600052602160045260246000fdfea2646970667358221220e9c10649591ed7f77758a0a0c44651655e1ae9241dd86f2418b08af8fbbaf84e64736f6c63430008140033a26469706673582212202ac6b8a7af3d7c646914601c4803f7839410fa135c09cbe621a18d6a1032957f64736f6c63430008140033",
  "deployedBytecode": "0x60806040523480156200001157600080fd5b50600436106101585760003560e01c8063045c656d146200006f5780630cb16d7914620000a35780635b303ed414620000da578063715018a614620000f15780638da5cb5b14620000fd578063f2fde38b146200010f575b600080fd5b620000866200008036600462000592565b62000126565b6040516001600160a01b0390911681526020015b60405180910390f35b620000c9620000b43660046200064e565b60016020526000908152604090205460ff1681565b60405190151581526020016200009a565b62000086620000eb36600462000592565b6200024f565b620000fb62000315565b005b6000546001600160a01b031662000086565b620000fb620001203660046200064e565b6200032d565b600080841180156200013757508385115b15620001565760405163c2c5358f60e01b815260040160405180910390fd5b6000604051806020016200016a90620004d9565b601f1982820381018352601f9091011660408190526200019b908b908b908b908b908b908b903390602001620006cd565b60408051601f1981840301815290829052620001bb92916020016200072f565b60405160208183030381529060405290506000620001dc6000858462000375565b6001600160a01b038116600081815260016020819052604091829020805460ff191690911790555191925033917f38149658d2cce21a1f05009bdf465f07ab5167c5f3c102c69b73383f06475edc906200023a908e908e9062000762565b60405180910390a39998505050505050505050565b600080841180156200026057508385115b156200027f5760405163c2c5358f60e01b815260040160405180910390fd5b6000604051806020016200029390620004d9565b601f1982820381018352601f909101166040819052620002c4908b908b908b908b908b908b903390602001620006cd565b60408051601f1981840301815290829052620002e492916020016200072f565b60405160208183030381529060405290506200030883828051906020012062000418565b9998505050505050505050565b6200031f62000427565b6200032b600062000456565b565b6200033762000427565b6001600160a01b0381166200036757604051631e4fbdf760e01b8152600060048201526024015b60405180910390fd5b620003728162000456565b50565b600083471015620003a35760405163cf47918160e01b8152476004820152602481018590526044016200035e565b8151600003620003c657604051631328927760e21b815260040160405180910390fd5b8282516020840186f590503d151981151615620003e9576040513d6000823e3d81fd5b6001600160a01b038116620004115760405163b06ebf3d60e01b815260040160405180910390fd5b9392505050565b600062000411838330620004a6565b6000546001600160a01b031633146200032b5760405163118cdaa760e01b81523360048201526024016200035e565b600080546001600160a01b038381166001600160a01b0319831681178455604051919092169283917f8be0079c531659141344cd1fd0a4f28419497f9722a3daafe3b4186f6b6457e09190a35050565b6000604051836040820152846020820152828152600b8101905060ff8153605590206001600160a01b0316949350505050565b611b6c80620007b383390190565b634e487b7160e01b600052604160045260246000fd5b600082601f8301126200050f57600080fd5b813567ffffffffffffffff808211156200052d576200052d620004e7565b604051601f8301601f19908116603f01168101908282118183101715620005585762000558620004e7565b816040528381528660208588010111156200057257600080fd5b836020870160208301376000602085830101528094505050505092915050565b600080600080600080600060e0888a031215620005ae57600080fd5b873567ffffffffffffffff80821115620005c757600080fd5b620005d58b838c01620004fd565b985060208a0135915080821115620005ec57600080fd5b50620005fb8a828b01620004fd565b965050604088013560ff811681146200061357600080fd5b9450606088013593506080880135925060a088013580151581146200063757600080fd5b8092505060c0880135905092959891949750929550565b6000602082840312156200066157600080fd5b81356001600160a01b03811681146200041157600080fd5b60005b83811015620006965781810151838201526020016200067c565b50506000910152565b60008151808452620006b981602086016020860162000679565b601f01601f19169290920160200192915050565b60e081526000620006e260e083018a6200069f565b8281036020840152620006f6818a6200069f565b60ff989098166040840152505060608101949094526080840192909252151560a08301526001600160a01b031660c09091015292915050565b600083516200074381846020880162000679565b8351908301906200075981836020880162000679565b01949350505050565b6060815260006200077760608301856200069f565b82810360208401526200078b81856200069f565b8381036040948501526005815264045524332360dc1b60208201529290920194935050505056fe6101606040523480156200001257600080fd5b5060405162001b6c38038062001b6c833981016040819052620000359162000530565b808780604051806040016040528060018152602001603160f81b8152508a8a816003908162000065919062000682565b50600462000074828262000682565b50506005805460ff19169055506200008e826006620001b7565b610120526200009f816007620001b7565b61014052815160208084019190912060e052815190820120610100524660a0526200012d60e05161010051604080517f8b73c3c69bb8fe3d512ecc4cf759cc79239f7b179b0ffacaa9a75d522b39400f60208201529081019290925260608201524660808201523060a082015260009060c00160405160208183030381529060405280519060200120905090565b60805250503060c052506001600160a01b0381166200016757604051631e4fbdf760e01b8152600060048201526024015b60405180910390fd5b6200017281620001f0565b506009805460ff60a01b1916600160a01b60ff881602179055600a839055600b805460ff1916831515179055620001aa818562000242565b50505050505050620007ca565b6000602083511015620001d757620001cf8362000280565b9050620001ea565b81620001e4848262000682565b5060ff90505b92915050565b600980546001600160a01b038381166001600160a01b0319831681179093556040519116919082907f8be0079c531659141344cd1fd0a4f28419497f9722a3daafe3b4186f6b6457e090600090a35050565b6001600160a01b0382166200026e5760405163ec442f0560e01b8152600060048201526024016200015e565b6200027c60008383620002c3565b5050565b600080829050601f81511115620002ae578260405163305a27a960e01b81526004016200015e91906200074e565b8051620002bb8262000783565b179392505050565b620002d0838383620002d5565b505050565b620002df620002ec565b620002d083838362000313565b60055460ff1615620003115760405163d93c066560e01b815260040160405180910390fd5b565b6001600160a01b03831662000342578060026000828254620003369190620007a8565b90915550620003b69050565b6001600160a01b03831660009081526020819052604090205481811015620003975760405163391434e360e21b81526001600160a01b038516600482015260248101829052604481018390526064016200015e565b6001600160a01b03841660009081526020819052604090209082900390555b6001600160a01b038216620003d457600280548290039055620003f3565b6001600160a01b03821660009081526020819052604090208054820190555b816001600160a01b0316836001600160a01b03167fddf252ad1be2c89b69c2b068fc378daa952ba7f163c4a11628f55a4df523b3ef836040516200043991815260200190565b60405180910390a3505050565b634e487b7160e01b600052604160045260246000fd5b60005b83811015620004795781810151838201526020016200045f565b50506000910152565b600082601f8301126200049457600080fd5b81516001600160401b0380821115620004b157620004b162000446565b604051601f8301601f19908116603f01168101908282118183101715620004dc57620004dc62000446565b81604052838152866020858801011115620004f657600080fd5b620005098460208301602089016200045c565b9695505050505050565b80516001600160a01b03811681146200052b57600080fd5b919050565b600080600080600080600060e0888a0312156200054c57600080fd5b87516001600160401b03808211156200056457600080fd5b620005728b838c0162000482565b985060208a01519150808211156200058957600080fd5b50620005988a828b0162000482565b965050604088015160ff81168114620005b057600080fd5b80955050606088015193506080880151925060a08801518015158114620005d657600080fd5b9150620005e660c0890162000513565b905092959891949750929550565b600181811c908216806200060957607f821691505b6020821081036200062a57634e487b7160e01b600052602260045260246000fd5b50919050565b601f821115620002d057600081815260208120601f850160051c81016020861015620006595750805b601f850160051c820191505b818110156200067a5782815560010162000665565b505050505050565b81516001600160401b038111156200069e576200069e62000446565b620006b681620006af8454620005f4565b8462000630565b602080601f831160018114620006ee5760008415620006d55750858301515b600019600386901b1c1916600185901b1785556200067a565b600085815260208120601f198616915b828110156200071f57888601518255948401946001909101908401620006fe565b50858210156200073e5787850151600019600388901b60f8161c191681555b5050505050600190811b01905550565b60208152600082518060208401526200076f8160408501602087016200045c565b601f01601f19169190910160400192915050565b805160208083015191908110156200062a5760001960209190910360031b1b16919050565b80820180821115620001ea57634e487b7160e01b600052601160045260246000fd5b60805160a05160c05160e051610100516101205161014051611347620008256000396000610acf01526000610aa2015260006108d0015260006108a8015260006108030152600061082d0152600061085701526113476000f3fe608060405234801561001057600080fd5b50600436106101585760003560e01c8063715018a6116100c357806395d89b411161007c57806395d89b41146102c5578063a9059cbb146102cd578063d505accf146102e0578063d5abeb01146102f3578063dd62ed3e146102fb578063f2fde38b1461033457600080fd5b8063715018a61461025957806379cc6790146102615780637ecebe00146102745780638456cb591461028757806384b0196e1461028f5780638da5cb5b146102aa57600080fd5b80633f4ba83a116101155780633f4ba83a146101ea57806340c10f19146101f457806342966c68146102075780634bf365df1461021a5780635c975abb1461022557806370a082311461023057600080fd5b806306fdde031461015d578063095ea7b31461017b57806318160ddd1461019e57806323b872dd146101b0578063313ce567146101c35780633644e515146101e2575b600080fd5b610165610347565b6040516101729190611094565b60405180910390f35b61018e6101893660046110ca565b6103d9565b6040519015158152602001610172565b6002545b604051908152602001610172565b61018e6101be3660046110f4565b6103f3565b600954600160a01b900460ff1660405160ff9091168152602001610172565b6101a2610417565b6101f2610426565b005b6101f26102023660046110ca565b610438565b6101f2610215366004611130565b6104cc565b600b5460ff1661018e565b60055460ff1661018e565b6101a261023e366004611149565b6001600160a01b031660009081526020819052604090205490565b6101f26104d9565b6101f261026f3660046110ca565b6104eb565b6101a2610282366004611149565b610500565b6101f261051e565b61029761052e565b6040516101729796959493929190611164565b6009546040516001600160a01b039091168152602001610172565b610165610574565b61018e6102db3660046110ca565b610583565b6101f26102ee3660046111fa565b610591565b600a546101a2565b6101a261030936600461126d565b6001600160a01b03918216600090815260016020908152604080832093909416825291909152205490565b6101f2610342366004611149565b6106cb565b606060038054610356906112a0565b80601f0160208091040260200160405190810160405280929190818152602001828054610382906112a0565b80156103cf5780601f106103a4576101008083540402835291602001916103cf565b820191906000526020600020905b8154815290600101906020018083116103b257829003601f168201915b5050505050905090565b6000336103e7818585610706565b60019150505b92915050565b600033610401858285610718565b61040c858585610797565b506001949350505050565b60006104216107f6565b905090565b61042e610921565b61043661094e565b565b610440610921565b600b5460ff166104635760405163af79b43760e01b815260040160405180910390fd5b6000600a541180156104895750600a548161047d60025490565b61048791906112da565b115b156104be57600a54604051637502c12360e11b81526104b5918391600401918252602082015260400190565b60405180910390fd5b6104c882826109a0565b5050565b6104d633826109d6565b50565b6104e1610921565b6104366000610a0c565b6104f6823383610718565b6104c882826109d6565b6001600160a01b0381166000908152600860205260408120546103ed565b610526610921565b610436610a5e565b600060608060008060006060610542610a9b565b61054a610ac8565b60408051600080825260208201909252600f60f81b9b939a50919850469750309650945092509050565b606060048054610356906112a0565b6000336103e7818585610797565b834211156105b55760405163313c898160e11b8152600481018590526024016104b5565b60007f6e71edae12b1b97f4d1f60370fef10105fa2faae0126114a169c64845d6126c98888886106028c6001600160a01b0316600090815260086020526040902080546001810190915590565b6040805160208101969096526001600160a01b0394851690860152929091166060840152608083015260a082015260c0810186905260e001604051602081830303815290604052805190602001209050600061065d82610af5565b9050600061066d82878787610b22565b9050896001600160a01b0316816001600160a01b0316146106b4576040516325c0072360e11b81526001600160a01b0380831660048301528b1660248201526044016104b5565b6106bf8a8a8a610706565b50505050505050505050565b6106d3610921565b6001600160a01b0381166106fd57604051631e4fbdf760e01b8152600060048201526024016104b5565b6104d681610a0c565b6107138383836001610b50565b505050565b6001600160a01b03838116600090815260016020908152604080832093861683529290522054600019811015610791578181101561078257604051637dc7a0d960e11b81526001600160a01b038416600482015260248101829052604481018390526064016104b5565b61079184848484036000610b50565b50505050565b6001600160a01b0383166107c157604051634b637e8f60e11b8152600060048201526024016104b5565b6001600160a01b0382166107eb5760405163ec442f0560e01b8152600060048201526024016104b5565b610713838383610c25565b6000306001600160a01b037f00000000000000000000000000000000000000000000000000000000000000001614801561084f57507f000000000000000000000000000000000000000000000000000000000000000046145b1561087957507f000000000000000000000000000000000000000000000000000000000000000090565b610421604080517f8b73c3c69bb8fe3d512ecc4cf759cc79239f7b179b0ffacaa9a75d522b39400f60208201527f0000000000000000000000000000000000000000000000000000000000000000918101919091527f000000000000000000000000000000000000000000000000000000000000000060608201524660808201523060a082015260009060c00160405160208183030381529060405280519060200120905090565b6009546001600160a01b031633146104365760405163118cdaa760e01b81523360048201526024016104b5565b610956610c30565b6005805460ff191690557f5db9ee0a495bf2e6ff9c91a7834c1ba4fdd244a5e8aa4e537bd38aeae4b073aa335b6040516001600160a01b03909116815260200160405180910390a1565b6001600160a01b0382166109ca5760405163ec442f0560e01b8152600060048201526024016104b5565b6104c860008383610c25565b6001600160a01b038216610a0057604051634b637e8f60e11b8152600060048201526024016104b5565b6104c882600083610c25565b600980546001600160a01b038381166001600160a01b0319831681179093556040519116919082907f8be0079c531659141344cd1fd0a4f28419497f9722a3daafe3b4186f6b6457e090600090a35050565b610a66610c53565b6005805460ff191660011790557f62e78cea01bee320cd4e420270b5ea74000d11b0c9f74754ebdbfc544b05a2586109833390565b60606104217f00000000000000000000000000000000000000000000000000000000000000006006610c77565b60606104217f00000000000000000000000000000000000000000000000000000000000000006007610c77565b60006103ed610b026107f6565b8360405161190160f01b8152600281019290925260228201526042902090565b600080600080610b3488888888610d22565b925092509250610b448282610df1565b50909695505050505050565b6001600160a01b038416610b7a5760405163e602df0560e01b8152600060048201526024016104b5565b6001600160a01b038316610ba457604051634a1406b160e11b8152600060048201526024016104b5565b6001600160a01b038085166000908152600160209081526040808320938716835292905220829055801561079157826001600160a01b0316846001600160a01b03167f8c5be1e5ebec7d5bd14f71427d1e84f3dd0314c0f7b2291e5b200ac8c7c3b92584604051610c1791815260200190565b60405180910390a350505050565b610713838383610eaa565b60055460ff1661043657604051638dfc202b60e01b815260040160405180910390fd5b60055460ff16156104365760405163d93c066560e01b815260040160405180910390fd5b606060ff8314610c9157610c8a83610ebd565b90506103ed565b818054610c9d906112a0565b80601f0160208091040260200160405190810160405280929190818152602001828054610cc9906112a0565b8015610d165780601f10610ceb57610100808354040283529160200191610d16565b820191906000526020600020905b815481529060010190602001808311610cf957829003601f168201915b505050505090506103ed565b600080807f7fffffffffffffffffffffffffffffff5d576e7357a4501ddfe92f46681b20a0841115610d5d5750600091506003905082610de7565b604080516000808252602082018084528a905260ff891692820192909252606081018790526080810186905260019060a0016020604051602081039080840390855afa158015610db1573d6000803e3d6000fd5b5050604051601f1901519150506001600160a01b038116610ddd57506000925060019150829050610de7565b9250600091508190505b9450945094915050565b6000826003811115610e0557610e056112fb565b03610e0e575050565b6001826003811115610e2257610e226112fb565b03610e405760405163f645eedf60e01b815260040160405180910390fd5b6002826003811115610e5457610e546112fb565b03610e755760405163fce698f760e01b8152600481018290526024016104b5565b6003826003811115610e8957610e896112fb565b036104c8576040516335e2f38360e21b8152600481018290526024016104b5565b610eb2610c53565b610713838383610efc565b60606000610eca83611026565b604080516020808252818301909252919250600091906020820181803683375050509182525060208101929092525090565b6001600160a01b038316610f27578060026000828254610f1c91906112da565b90915550610f999050565b6001600160a01b03831660009081526020819052604090205481811015610f7a5760405163391434e360e21b81526001600160a01b038516600482015260248101829052604481018390526064016104b5565b6001600160a01b03841660009081526020819052604090209082900390555b6001600160a01b038216610fb557600280548290039055610fd4565b6001600160a01b03821660009081526020819052604090208054820190555b816001600160a01b0316836001600160a01b03167fddf252ad1be2c89b69c2b068fc378daa952ba7f163c4a11628f55a4df523b3ef8360405161101991815260200190565b60405180910390a3505050565b600060ff8216601f8111156103ed57604051632cd44ac360e21b815260040160405180910390fd5b6000815180845260005b8181101561107457602081850181015186830182015201611058565b506000602082860101526020601f19601f83011685010191505092915050565b6020815260006110a7602083018461104e565b9392505050565b80356001600160a01b03811681146110c557600080fd5b919050565b600080604083850312156110dd57600080fd5b6110e6836110ae565b946020939093013593505050565b60008060006060848603121561110957600080fd5b611112846110ae565b9250611120602085016110ae565b9150604084013590509250925092565b60006020828403121561114257600080fd5b5035919050565b60006020828403121561115b57600080fd5b6110a7826110ae565b60ff60f81b881681526000602060e08184015261118460e084018a61104e565b8381036040850152611196818a61104e565b606085018990526001600160a01b038816608086015260a0850187905284810360c0860152855180825283870192509083019060005b818110156111e8578351835292840192918401916001016111cc565b50909c9b505050505050505050505050565b600080600080600080600060e0888a03121561121557600080fd5b61121e886110ae565b965061122c602089016110ae565b95506040880135945060608801359350608088013560ff8116811461125057600080fd5b9699959850939692959460a0840135945060c09093013592915050565b6000806040838503121561128057600080fd5b611289836110ae565b9150611297602084016110ae565b90509250929050565b600181811c908216806112b457607f821691505b6020821081036112d457634e487b7160e01b600052602260045260246000fd5b50919050565b808201808211156103ed57634e487b7160e01b600052601160045260246000fd5b634e487b7160e01b600052602160045260246000fdfea2646970667358221220e9c10649591ed7f77758a0a0c44651655e1ae9241dd86f2418b08af8fbbaf84e64736f6c63430008140033a26469706673582212202ac6b8a7af3d7c646914601c4803f7839410fa135c09cbe621a18d6a1032957f64736f6c63430008140033",
  "linkReferences": {},
  "deployedLinkReferences": {}
}