{
  "_format": "hh-sol-artifact-1",
  "contractName": "TokenForgePlans",
  "sourceName": "contracts/TokenForgePlans.sol",
  "abi": [
    {
      "inputs": [],
      "stateMutability": "nonpayable",
      "type": "constructor"
    },
    {
      "anonymous": false,
      "inputs": [
        {
          "indexed": true,
          "internalType": "address",
          "name": "previousOwner",
          "type": "address"
        },
        {
          "indexed": true,
          "internalType": "address",
          "name": "newOwner",
          "type": "address"
        }
      ],
      "name": "OwnershipTransferred",
      "type": "event"
    },
    {
      "anonymous": false,
      "inputs": [
        {
          "indexed": false,
          "internalType": "enum TokenForgePlans.PlanType",
          "name": "planType",
          "type": "uint8"
        },
        {
          "indexed": false,
          "internalType": "uint256",
          "name": "newPrice",
          "type": "uint256"
        }
      ],
      "name": "PlanPriceUpdated",
      "type": "event"
    },
    {
      "anonymous": false,
      "inputs": [
        {
          "indexed": true,
          "internalType": "address",
          "name": "user",
          "type": "address"
        },
        {
          "indexed": false,
          "internalType": "enum TokenForgePlans.PlanType",
          "name": "planType",
          "type": "uint8"
        },
        {
          "indexed": false,
          "internalType": "uint256",
          "name": "price",
          "type": "uint256"
        }
      ],
      "name": "PlanPurchased",
      "type": "event"
    },
    {
      "inputs": [
        {
          "internalType": "address",
          "name": "user",
          "type": "address"
        }
      ],
      "name": "getUserPlan",
      "outputs": [
        {
          "internalType": "enum TokenForgePlans.PlanType",
          "name": "",
          "type": "uint8"
        }
      ],
      "stateMutability": "view",
      "type": "function"
    },
    {
      "inputs": [],
      "name": "owner",
      "outputs": [
        {
          "internalType": "address",
          "name": "",
          "type": "address"
        }
      ],
      "stateMutability": "view",
      "type": "function"
    },
    {
      "inputs": [
        {
          "internalType": "enum TokenForgePlans.PlanType",
          "name": "",
          "type": "uint8"
        }
      ],
      "name": "plans",
      "outputs": [
        {
          "internalType": "string",
          "name": "name",
          "type": "string"
        },
        {
          "internalType": "uint256",
          "name": "price",
          "type": "uint256"
        },
        {
          "internalType": "bool",
          "name": "isActive",
          "type": "bool"
        }
      ],
      "stateMutability": "view",
      "type": "function"
    },
    {
      "inputs": [
        {
          "internalType": "enum TokenForgePlans.PlanType",
          "name": "planType",
          "type": "uint8"
        }
      ],
      "name": "purchasePlan",
      "outputs": [],
      "stateMutability": "payable",
      "type": "function"
    },
    {
      "inputs": [],
      "name": "renounceOwnership",
      "outputs": [],
      "stateMutability": "nonpayable",
      "type": "function"
    },
    {
      "inputs": [
        {
          "internalType": "address",
          "name": "newOwner",
          "type": "address"
        }
      ],
      "name": "transferOwnership",
      "outputs": [],
      "stateMutability": "nonpayable",
      "type": "function"
    },
    {
      "inputs": [
        {
          "internalType": "enum TokenForgePlans.PlanType",
          "name": "planType",
          "type": "uint8"
        },
        {
          "internalType": "uint256",
          "name": "newPrice",
          "type": "uint256"
        }
      ],
      "name": "updatePlanPrice",
      "outputs": [],
      "stateMutability": "nonpayable",
      "type": "function"
    },
    {
      "inputs": [
        {
          "internalType": "address",
          "name": "",
          "type": "address"
        }
      ],
      "name": "userPlans",
      "outputs": [
        {
          "internalType": "enum TokenForgePlans.PlanType",
          "name": "",
          "type": "uint8"
        }
      ],
      "stateMutability": "view",
      "type": "function"
    },
    {
      "inputs": [],
      "name": "withdraw",
      "outputs": [],
      "stateMutability": "nonpayable",
      "type": "function"
    }
  ],
  "bytecode": "0x60806040523480156200001157600080fd5b506200001d33620001fb565b60018080556040805160a0810182526011606082019081527020b8383932b73a34902337b933b2b937b760791b6080830152815260006020808301829052928201939093529180526002905280517fac33ff75c19e70fe83507db0d683fd3465c996598dc972688b7ace676c89077b9081906200009b9082620002f0565b506020828101516001838101919091556040938401516002938401805460ff1916911515919091179055835160a081018552600860608201908152672337b933b2b937b760c11b60808301528152670429d069189e0000818401529384018190526000525280517fe90b7bceb6e7df5418fb78d8ee546e97c83a08bbccc01a0644d599ccd2a7c2e0908190620001329082620002f0565b506020828101516001838101919091556040938401516002938401805460ff1916911515919091179055835160a081018552600f606082019081526e26b0b4ba3932902337b933b2b937b760891b60808301528152670de0b6b3a7640000818401529384015260008290525280517f679795a0195a1b76cdebb7c51d74e058aee92919b8c3389af86ef24535e8a28c908190620001d09082620002f0565b50602082015160018201556040909101516002909101805460ff1916911515919091179055620003bc565b600080546001600160a01b038381166001600160a01b0319831681178455604051919092169283917f8be0079c531659141344cd1fd0a4f28419497f9722a3daafe3b4186f6b6457e09190a35050565b634e487b7160e01b600052604160045260246000fd5b600181811c908216806200027657607f821691505b6020821081036200029757634e487b7160e01b600052602260045260246000fd5b50919050565b601f821115620002eb57600081815260208120601f850160051c81016020861015620002c65750805b601f850160051c820191505b81811015620002e757828155600101620002d2565b5050505b505050565b81516001600160401b038111156200030c576200030c6200024b565b62000324816200031d845462000261565b846200029d565b602080601f8311600181146200035c5760008415620003435750858301515b600019600386901b1c1916600185901b178555620002e7565b600085815260208120601f198616915b828110156200038d578886015182559484019460019091019084016200036c565b5085821015620003ac5787850151600019600388901b60f8161c191681555b5050505050600190811b01905550565b6108fa80620003cc6000396000f3fe6080604052600436106100865760003560e01c80638da5cb5b116100595780638da5cb5b1461012c5780639869301014610154578063e1076d1514610167578063f2fde38b146101a0578063f5727c33146101c057600080fd5b80633ccfd60b1461008b57806350b61bc1146100a257806360a31a88146100e8578063715018a614610117575b600080fd5b34801561009757600080fd5b506100a06101e0565b005b3480156100ae57600080fd5b506100d26100bd36600461071b565b60036020526000908152604090205460ff1681565b6040516100df9190610783565b60405180910390f35b3480156100f457600080fd5b506101086101033660046107ab565b610225565b6040516100df939291906107c6565b34801561012357600080fd5b506100a06102d3565b34801561013857600080fd5b506000546040516001600160a01b0390911681526020016100df565b6100a06101623660046107ab565b6102e7565b34801561017357600080fd5b506100d261018236600461071b565b6001600160a01b031660009081526003602052604090205460ff1690565b3480156101ac57600080fd5b506100a06101bb36600461071b565b610520565b3480156101cc57600080fd5b506100a06101db366004610824565b610596565b6101e8610618565b600080546040516001600160a01b03909116914780156108fc02929091818181858888f19350505050158015610222573d6000803e3d6000fd5b50565b6002602052600090815260409020805481906102409061084e565b80601f016020809104026020016040519081016040528092919081815260200182805461026c9061084e565b80156102b95780601f1061028e576101008083540402835291602001916102b9565b820191906000526020600020905b81548152906001019060200180831161029c57829003601f168201915b50505050600183015460029093015491929160ff16905083565b6102db610618565b6102e56000610672565b565b6102ef6106c2565b600260008260028111156103055761030561074b565b60028111156103165761031661074b565b815260208101919091526040016000206002015460ff166103735760405162461bcd60e51b8152602060048201526012602482015271506c616e206e6f7420617661696c61626c6560701b60448201526064015b60405180910390fd5b600260008260028111156103895761038961074b565b600281111561039a5761039a61074b565b8152602001908152602001600020600101543410156103f25760405162461bcd60e51b8152602060048201526014602482015273125b9cdd59999a58da595b9d081c185e5b595b9d60621b604482015260640161036a565b336000908152600360205260409020805482919060ff1916600183600281111561041e5761041e61074b565b0217905550336001600160a01b03167f2fbf8c1dd8d445f8a551e40588711473ae38ac73f4e51934877f7da74e1a509e823460405161045e929190610888565b60405180910390a26002600082600281111561047c5761047c61074b565b600281111561048d5761048d61074b565b81526020019081526020016000206001015434111561051757336108fc6002600084828111156104bf576104bf61074b565b60028111156104d0576104d061074b565b815260200190815260200160002060010154346104ed91906108a3565b6040518115909202916000818181858888f19350505050158015610515573d6000803e3d6000fd5b505b61022260018055565b610528610618565b6001600160a01b03811661058d5760405162461bcd60e51b815260206004820152602660248201527f4f776e61626c653a206e6577206f776e657220697320746865207a65726f206160448201526564647265737360d01b606482015260840161036a565b61022281610672565b61059e610618565b80600260008460028111156105b5576105b561074b565b60028111156105c6576105c661074b565b8152602001908152602001600020600101819055507f14966e8c4fba84b78ced280eadb3677e1fd4a0ef8ef8aa11b5fd826774758963828260405161060c929190610888565b60405180910390a15050565b6000546001600160a01b031633146102e55760405162461bcd60e51b815260206004820181905260248201527f4f776e61626c653a2063616c6c6572206973206e6f7420746865206f776e6572604482015260640161036a565b600080546001600160a01b038381166001600160a01b0319831681178455604051919092169283917f8be0079c531659141344cd1fd0a4f28419497f9722a3daafe3b4186f6b6457e09190a35050565b6002600154036107145760405162461bcd60e51b815260206004820152601f60248201527f5265656e7472616e637947756172643a207265656e7472616e742063616c6c00604482015260640161036a565b6002600155565b60006020828403121561072d57600080fd5b81356001600160a01b038116811461074457600080fd5b9392505050565b634e487b7160e01b600052602160045260246000fd5b6003811061077f57634e487b7160e01b600052602160045260246000fd5b9052565b602081016107918284610761565b92915050565b8035600381106107a657600080fd5b919050565b6000602082840312156107bd57600080fd5b61074482610797565b606081526000845180606084015260005b818110156107f457602081880181015160808684010152016107d7565b506000608082850101526080601f19601f8301168401019150508360208301528215156040830152949350505050565b6000806040838503121561083757600080fd5b61084083610797565b946020939093013593505050565b600181811c9082168061086257607f821691505b60208210810361088257634e487b7160e01b600052602260045260246000fd5b50919050565b604081016108968285610761565b8260208301529392505050565b8181038181111561079157634e487b7160e01b600052601160045260246000fdfea26469706673582212201585bda3acf7b7bf7278bf291f3b559eeaed1ae8e952e4003894c83b5b67097d64736f6c63430008130033",
  "linkReferences": {},
  "deployedLinkReferences": {}
}