{
  "_format": "hh-sol-artifact-1",
  "contractName": "TokenFactory",
  "sourceName": "contracts/TokenFactory.sol",
  "abi": [
    {
      "inputs": [
        {
          "internalType": "address",
          "name": "initialOwner",
          "type": "address"
        }
      ],
      "stateMutability": "nonpayable",
      "type": "constructor"
    },
    {
      "inputs": [],
      "name": "EmptyName",
      "type": "error"
    },
    {
      "inputs": [],
      "name": "EmptySymbol",
      "type": "error"
    },
    {
      "inputs": [],
      "name": "InvalidInitialSupply",
      "type": "error"
    },
    {
      "inputs": [],
      "name": "InvalidMaxSupply",
      "type": "error"
    },
    {
      "inputs": [],
      "name": "ZeroSupply",
      "type": "error"
    },
    {
      "anonymous": false,
      "inputs": [
        {
          "indexed": true,
          "internalType": "address",
          "name": "previousOwner",
          "type": "address"
        },
        {
          "indexed": true,
          "internalType": "address",
          "name": "newOwner",
          "type": "address"
        }
      ],
      "name": "OwnershipTransferred",
      "type": "event"
    },
    {
      "anonymous": false,
      "inputs": [
        {
          "indexed": true,
          "internalType": "address",
          "name": "tokenAddress",
          "type": "address"
        },
        {
          "indexed": false,
          "internalType": "string",
          "name": "name",
          "type": "string"
        },
        {
          "indexed": false,
          "internalType": "string",
          "name": "symbol",
          "type": "string"
        },
        {
          "indexed": false,
          "internalType": "string",
          "name": "tokenType",
          "type": "string"
        },
        {
          "indexed": true,
          "internalType": "address",
          "name": "owner",
          "type": "address"
        }
      ],
      "name": "TokenCreated",
      "type": "event"
    },
    {
      "inputs": [
        {
          "internalType": "string",
          "name": "name",
          "type": "string"
        },
        {
          "internalType": "string",
          "name": "symbol",
          "type": "string"
        },
        {
          "internalType": "uint8",
          "name": "decimals",
          "type": "uint8"
        },
        {
          "internalType": "uint256",
          "name": "initialSupply",
          "type": "uint256"
        },
        {
          "internalType": "uint256",
          "name": "maxSupply",
          "type": "uint256"
        },
        {
          "internalType": "bool",
          "name": "mintable",
          "type": "bool"
        },
        {
          "internalType": "bytes32",
          "name": "salt",
          "type": "bytes32"
        }
      ],
      "name": "createERC20",
      "outputs": [
        {
          "internalType": "address",
          "name": "",
          "type": "address"
        }
      ],
      "stateMutability": "nonpayable",
      "type": "function"
    },
    {
      "inputs": [
        {
          "internalType": "address",
          "name": "",
          "type": "address"
        }
      ],
      "name": "isTokenCreatedHere",
      "outputs": [
        {
          "internalType": "bool",
          "name": "",
          "type": "bool"
        }
      ],
      "stateMutability": "view",
      "type": "function"
    },
    {
      "inputs": [],
      "name": "owner",
      "outputs": [
        {
          "internalType": "address",
          "name": "",
          "type": "address"
        }
      ],
      "stateMutability": "view",
      "type": "function"
    },
    {
      "inputs": [
        {
          "internalType": "string",
          "name": "name",
          "type": "string"
        },
        {
          "internalType": "string",
          "name": "symbol",
          "type": "string"
        },
        {
          "internalType": "uint8",
          "name": "decimals",
          "type": "uint8"
        },
        {
          "internalType": "uint256",
          "name": "initialSupply",
          "type": "uint256"
        },
        {
          "internalType": "uint256",
          "name": "maxSupply",
          "type": "uint256"
        },
        {
          "internalType": "bool",
          "name": "mintable",
          "type": "bool"
        },
        {
          "internalType": "bytes32",
          "name": "salt",
          "type": "bytes32"
        }
      ],
      "name": "predictERC20Address",
      "outputs": [
        {
          "internalType": "address",
          "name": "",
          "type": "address"
        }
      ],
      "stateMutability": "view",
      "type": "function"
    },
    {
      "inputs": [],
      "name": "renounceOwnership",
      "outputs": [],
      "stateMutability": "nonpayable",
      "type": "function"
    },
    {
      "inputs": [
        {
          "internalType": "address",
          "name": "newOwner",
          "type": "address"
        }
      ],
      "name": "transferOwnership",
      "outputs": [],
      "stateMutability": "nonpayable",
      "type": "function"
    }
  ],
  "bytecode": "0x608060405234801561001057600080fd5b5060405161292638038061292683398101604081905261002f91610097565b61003833610047565b61004181610047565b506100c7565b600080546001600160a01b038381166001600160a01b0319831681178455604051919092169283917f8be0079c531659141344cd1fd0a4f28419497f9722a3daafe3b4186f6b6457e09190a35050565b6000602082840312156100a957600080fd5b81516001600160a01b03811681146100c057600080fd5b9392505050565b612850806100d66000396000f3fe60806040523480156200001157600080fd5b50600436106200006a5760003560e01c8063045c656d146200006f5780630cb16d7914620000a35780635b303ed414620000da578063715018a614620000f15780638da5cb5b14620000fd578063f2fde38b146200010f575b600080fd5b620000866200008036600462000731565b62000126565b6040516001600160a01b0390911681526020015b60405180910390f35b620000c9620000b4366004620007ed565b60016020526000908152604090205460ff1681565b60405190151581526020016200009a565b62000086620000eb36600462000731565b620002b8565b620000fb620003e7565b005b6000546001600160a01b031662000086565b620000fb62000120366004620007ed565b620003ff565b600087516000036200014b57604051632ef1310560e01b815260040160405180910390fd5b86516000036200016e57604051630cc613fb60e11b815260040160405180910390fd5b84600003620001905760405163c16f3a9360e01b815260040160405180910390fd5b600084118015620001a057508385115b15620001bf5760405163c2c5358f60e01b815260040160405180910390fd5b600060405180602001620001d39062000678565b601f1982820381018352601f90910116604081905262000204908b908b908b908b908b908b9033906020016200086c565b60408051601f1981840301815290829052620002249291602001620008ce565b60405160208183030381529060405290506000620002456000858462000482565b6001600160a01b038116600081815260016020819052604091829020805460ff191690911790555191925033917f38149658d2cce21a1f05009bdf465f07ab5167c5f3c102c69b73383f06475edc90620002a3908e908e9062000901565b60405180910390a39998505050505050505050565b60008751600003620002dd57604051632ef1310560e01b815260040160405180910390fd5b86516000036200030057604051630cc613fb60e11b815260040160405180910390fd5b84600003620003225760405163c16f3a9360e01b815260040160405180910390fd5b6000841180156200033257508385115b15620003515760405163c2c5358f60e01b815260040160405180910390fd5b600060405180602001620003659062000678565b601f1982820381018352601f90910116604081905262000396908b908b908b908b908b908b9033906020016200086c565b60408051601f1981840301815290829052620003b69291602001620008ce565b6040516020818303038152906040529050620003da83828051906020012062000593565b9998505050505050505050565b620003f1620005a2565b620003fd6000620005fe565b565b62000409620005a2565b6001600160a01b038116620004745760405162461bcd60e51b815260206004820152602660248201527f4f776e61626c653a206e6577206f776e657220697320746865207a65726f206160448201526564647265737360d01b60648201526084015b60405180910390fd5b6200047f81620005fe565b50565b600083471015620004d65760405162461bcd60e51b815260206004820152601d60248201527f437265617465323a20696e73756666696369656e742062616c616e636500000060448201526064016200046b565b8151600003620005295760405162461bcd60e51b815260206004820181905260248201527f437265617465323a2062797465636f6465206c656e677468206973207a65726f60448201526064016200046b565b8282516020840186f590506001600160a01b0381166200058c5760405162461bcd60e51b815260206004820152601960248201527f437265617465323a204661696c6564206f6e206465706c6f790000000000000060448201526064016200046b565b9392505050565b60006200058c8383306200064e565b6000546001600160a01b03163314620003fd5760405162461bcd60e51b815260206004820181905260248201527f4f776e61626c653a2063616c6c6572206973206e6f7420746865206f776e657260448201526064016200046b565b600080546001600160a01b038381166001600160a01b0319831681178455604051919092169283917f8be0079c531659141344cd1fd0a4f28419497f9722a3daafe3b4186f6b6457e09190a35050565b6000604051836040820152846020820152828152600b8101905060ff815360559020949350505050565b611ec9806200095283390190565b634e487b7160e01b600052604160045260246000fd5b600082601f830112620006ae57600080fd5b813567ffffffffffffffff80821115620006cc57620006cc62000686565b604051601f8301601f19908116603f01168101908282118183101715620006f757620006f762000686565b816040528381528660208588010111156200071157600080fd5b836020870160208301376000602085830101528094505050505092915050565b600080600080600080600060e0888a0312156200074d57600080fd5b873567ffffffffffffffff808211156200076657600080fd5b620007748b838c016200069c565b985060208a01359150808211156200078b57600080fd5b506200079a8a828b016200069c565b965050604088013560ff81168114620007b257600080fd5b9450606088013593506080880135925060a08801358015158114620007d657600080fd5b8092505060c0880135905092959891949750929550565b6000602082840312156200080057600080fd5b81356001600160a01b03811681146200058c57600080fd5b60005b83811015620008355781810151838201526020016200081b565b50506000910152565b600081518084526200085881602086016020860162000818565b601f01601f19169290920160200192915050565b60e0815260006200088160e083018a6200083e565b828103602084015262000895818a6200083e565b60ff989098166040840152505060608101949094526080840192909252151560a08301526001600160a01b031660c09091015292915050565b60008351620008e281846020880162000818565b835190830190620008f881836020880162000818565b01949350505050565b6060815260006200091660608301856200083e565b82810360208401526200092a81856200083e565b8381036040948501526005815264045524332360dc1b60208201529290920194935050505056fe6101606040523480156200001257600080fd5b5060405162001ec938038062001ec983398101604081905262000035916200046a565b6040805180820190915260018152603160f81b60208201528590819081876003620000618382620005a8565b506004620000708282620005a8565b50506005805460ff1916905550620000883362000178565b62000095826006620001d2565b61012052620000a6816007620001d2565b61014052815160208084019190912060e052815190820120610100524660a0526200013460e05161010051604080517f8b73c3c69bb8fe3d512ecc4cf759cc79239f7b179b0ffacaa9a75d522b39400f60208201529081019290925260608201524660808201523060a082015260009060c00160405160208183030381529060405280519060200120905090565b60805250503060c0525062000162816200015085600a62000787565b6200015c90856200079f565b6200020b565b6200016d8162000178565b505050505062000829565b600580546001600160a01b03838116610100818102610100600160a81b031985161790945560405193909204169182907f8be0079c531659141344cd1fd0a4f28419497f9722a3daafe3b4186f6b6457e090600090a35050565b6000602083511015620001f257620001ea83620002e0565b905062000205565b81620001ff8482620005a8565b5060ff90505b92915050565b6001600160a01b038216620002675760405162461bcd60e51b815260206004820152601f60248201527f45524332303a206d696e7420746f20746865207a65726f20616464726573730060448201526064015b60405180910390fd5b620002756000838362000323565b8060026000828254620002899190620007b9565b90915550506001600160a01b038216600081815260208181526040808320805486019055518481527fddf252ad1be2c89b69c2b068fc378daa952ba7f163c4a11628f55a4df523b3ef910160405180910390a35050565b600080829050601f815111156200030e578260405163305a27a960e01b81526004016200025e9190620007cf565b80516200031b8262000804565b179392505050565b6200033083838362000335565b505050565b60055460ff1615620003305760405162461bcd60e51b815260206004820152602a60248201527f45524332305061757361626c653a20746f6b656e207472616e736665722077686044820152691a5b19481c185d5cd95960b21b60648201526084016200025e565b634e487b7160e01b600052604160045260246000fd5b60005b83811015620003d0578181015183820152602001620003b6565b50506000910152565b600082601f830112620003eb57600080fd5b81516001600160401b03808211156200040857620004086200039d565b604051601f8301601f19908116603f011681019082821181831017156200043357620004336200039d565b816040528381528660208588010111156200044d57600080fd5b62000460846020830160208901620003b3565b9695505050505050565b600080600080600060a086880312156200048357600080fd5b85516001600160401b03808211156200049b57600080fd5b620004a989838a01620003d9565b96506020880151915080821115620004c057600080fd5b50620004cf88828901620003d9565b945050604086015160ff81168114620004e757600080fd5b6060870151608088015191945092506001600160a01b03811681146200050c57600080fd5b809150509295509295909350565b600181811c908216806200052f57607f821691505b6020821081036200055057634e487b7160e01b600052602260045260246000fd5b50919050565b601f8211156200033057600081815260208120601f850160051c810160208610156200057f5750805b601f850160051c820191505b81811015620005a0578281556001016200058b565b505050505050565b81516001600160401b03811115620005c457620005c46200039d565b620005dc81620005d584546200051a565b8462000556565b602080601f831160018114620006145760008415620005fb5750858301515b600019600386901b1c1916600185901b178555620005a0565b600085815260208120601f198616915b82811015620006455788860151825594840194600190910190840162000624565b5085821015620006645787850151600019600388901b60f8161c191681555b5050505050600190811b01905550565b634e487b7160e01b600052601160045260246000fd5b600181815b80851115620006cb578160001904821115620006af57620006af62000674565b80851615620006bd57918102915b93841c93908002906200068f565b509250929050565b600082620006e45750600162000205565b81620006f35750600062000205565b81600181146200070c5760028114620007175762000737565b600191505062000205565b60ff8411156200072b576200072b62000674565b50506001821b62000205565b5060208310610133831016604e8410600b84101617156200075c575081810a62000205565b6200076883836200068a565b80600019048211156200077f576200077f62000674565b029392505050565b60006200079860ff841683620006d3565b9392505050565b808202811582820484141762000205576200020562000674565b8082018082111562000205576200020562000674565b6020815260008251806020840152620007f0816040850160208701620003b3565b601f01601f19169190910160400192915050565b80516020808301519190811015620005505760001960209190910360031b1b16919050565b60805160a05160c05160e0516101005161012051610140516116456200088460003960006104c60152600061049b01526000610be001526000610bb801526000610b1301526000610b3d01526000610b6701526116456000f3fe608060405234801561001057600080fd5b506004361061014d5760003560e01c8063715018a6116100c357806395d89b411161007c57806395d89b41146102ad578063a457c2d7146102b5578063a9059cbb146102c8578063d505accf146102db578063dd62ed3e146102ee578063f2fde38b1461030157600080fd5b8063715018a61461023357806379cc67901461023b5780637ecebe001461024e5780638456cb591461026157806384b0196e146102695780638da5cb5b1461028457600080fd5b80633644e515116101155780633644e515146101c757806339509351146101cf5780633f4ba83a146101e257806342966c68146101ec5780635c975abb146101ff57806370a082311461020a57600080fd5b806306fdde0314610152578063095ea7b31461017057806318160ddd1461019357806323b872dd146101a5578063313ce567146101b8575b600080fd5b61015a610314565b6040516101679190611398565b60405180910390f35b61018361017e3660046113ce565b6103a6565b6040519015158152602001610167565b6002545b604051908152602001610167565b6101836101b33660046113f8565b6103c0565b60405160128152602001610167565b6101976103e4565b6101836101dd3660046113ce565b6103f3565b6101ea610415565b005b6101ea6101fa366004611434565b610427565b60055460ff16610183565b61019761021836600461144d565b6001600160a01b031660009081526020819052604090205490565b6101ea610434565b6101ea6102493660046113ce565b610446565b61019761025c36600461144d565b61045f565b6101ea61047d565b61027161048d565b6040516101679796959493929190611468565b60055461010090046001600160a01b03166040516001600160a01b039091168152602001610167565b61015a610516565b6101836102c33660046113ce565b610525565b6101836102d63660046113ce565b6105a5565b6101ea6102e93660046114fe565b6105b3565b6101976102fc366004611571565b610717565b6101ea61030f36600461144d565b610742565b606060038054610323906115a4565b80601f016020809104026020016040519081016040528092919081815260200182805461034f906115a4565b801561039c5780601f106103715761010080835404028352916020019161039c565b820191906000526020600020905b81548152906001019060200180831161037f57829003601f168201915b5050505050905090565b6000336103b48185856107b8565b60019150505b92915050565b6000336103ce8582856108dd565b6103d9858585610957565b506001949350505050565b60006103ee610b06565b905090565b6000336103b48185856104068383610717565b61041091906115d8565b6107b8565b61041d610c31565b610425610c91565b565b6104313382610ce3565b50565b61043c610c31565b6104256000610e1e565b6104518233836108dd565b61045b8282610ce3565b5050565b6001600160a01b0381166000908152600860205260408120546103ba565b610485610c31565b610425610e78565b6000606080828080836104c17f00000000000000000000000000000000000000000000000000000000000000006006610eb5565b6104ec7f00000000000000000000000000000000000000000000000000000000000000006007610eb5565b60408051600080825260208201909252600f60f81b9b939a50919850469750309650945092509050565b606060048054610323906115a4565b600033816105338286610717565b9050838110156105985760405162461bcd60e51b815260206004820152602560248201527f45524332303a2064656372656173656420616c6c6f77616e63652062656c6f77604482015264207a65726f60d81b60648201526084015b60405180910390fd5b6103d982868684036107b8565b6000336103b4818585610957565b834211156106035760405162461bcd60e51b815260206004820152601d60248201527f45524332305065726d69743a206578706972656420646561646c696e65000000604482015260640161058f565b60007f6e71edae12b1b97f4d1f60370fef10105fa2faae0126114a169c64845d6126c98888886106328c610f60565b6040805160208101969096526001600160a01b0394851690860152929091166060840152608083015260a082015260c0810186905260e001604051602081830303815290604052805190602001209050600061068d82610f88565b9050600061069d82878787610fb5565b9050896001600160a01b0316816001600160a01b0316146107005760405162461bcd60e51b815260206004820152601e60248201527f45524332305065726d69743a20696e76616c6964207369676e61747572650000604482015260640161058f565b61070b8a8a8a6107b8565b50505050505050505050565b6001600160a01b03918216600090815260016020908152604080832093909416825291909152205490565b61074a610c31565b6001600160a01b0381166107af5760405162461bcd60e51b815260206004820152602660248201527f4f776e61626c653a206e6577206f776e657220697320746865207a65726f206160448201526564647265737360d01b606482015260840161058f565b61043181610e1e565b6001600160a01b03831661081a5760405162461bcd60e51b8152602060048201526024808201527f45524332303a20617070726f76652066726f6d20746865207a65726f206164646044820152637265737360e01b606482015260840161058f565b6001600160a01b03821661087b5760405162461bcd60e51b815260206004820152602260248201527f45524332303a20617070726f766520746f20746865207a65726f206164647265604482015261737360f01b606482015260840161058f565b6001600160a01b0383811660008181526001602090815260408083209487168084529482529182902085905590518481527f8c5be1e5ebec7d5bd14f71427d1e84f3dd0314c0f7b2291e5b200ac8c7c3b92591015b60405180910390a3505050565b60006108e98484610717565b9050600019811461095157818110156109445760405162461bcd60e51b815260206004820152601d60248201527f45524332303a20696e73756666696369656e7420616c6c6f77616e6365000000604482015260640161058f565b61095184848484036107b8565b50505050565b6001600160a01b0383166109bb5760405162461bcd60e51b815260206004820152602560248201527f45524332303a207472616e736665722066726f6d20746865207a65726f206164604482015264647265737360d81b606482015260840161058f565b6001600160a01b038216610a1d5760405162461bcd60e51b815260206004820152602360248201527f45524332303a207472616e7366657220746f20746865207a65726f206164647260448201526265737360e81b606482015260840161058f565b610a28838383610fdd565b6001600160a01b03831660009081526020819052604090205481811015610aa05760405162461bcd60e51b815260206004820152602660248201527f45524332303a207472616e7366657220616d6f756e7420657863656564732062604482015265616c616e636560d01b606482015260840161058f565b6001600160a01b03848116600081815260208181526040808320878703905593871680835291849020805487019055925185815290927fddf252ad1be2c89b69c2b068fc378daa952ba7f163c4a11628f55a4df523b3ef910160405180910390a3610951565b6000306001600160a01b037f000000000000000000000000000000000000000000000000000000000000000016148015610b5f57507f000000000000000000000000000000000000000000000000000000000000000046145b15610b8957507f000000000000000000000000000000000000000000000000000000000000000090565b6103ee604080517f8b73c3c69bb8fe3d512ecc4cf759cc79239f7b179b0ffacaa9a75d522b39400f60208201527f0000000000000000000000000000000000000000000000000000000000000000918101919091527f000000000000000000000000000000000000000000000000000000000000000060608201524660808201523060a082015260009060c00160405160208183030381529060405280519060200120905090565b6005546001600160a01b036101009091041633146104255760405162461bcd60e51b815260206004820181905260248201527f4f776e61626c653a2063616c6c6572206973206e6f7420746865206f776e6572604482015260640161058f565b610c99610fe8565b6005805460ff191690557f5db9ee0a495bf2e6ff9c91a7834c1ba4fdd244a5e8aa4e537bd38aeae4b073aa335b6040516001600160a01b03909116815260200160405180910390a1565b6001600160a01b038216610d435760405162461bcd60e51b815260206004820152602160248201527f45524332303a206275726e2066726f6d20746865207a65726f206164647265736044820152607360f81b606482015260840161058f565b610d4f82600083610fdd565b6001600160a01b03821660009081526020819052604090205481811015610dc35760405162461bcd60e51b815260206004820152602260248201527f45524332303a206275726e20616d6f756e7420657863656564732062616c616e604482015261636560f01b606482015260840161058f565b6001600160a01b0383166000818152602081815260408083208686039055600280548790039055518581529192917fddf252ad1be2c89b69c2b068fc378daa952ba7f163c4a11628f55a4df523b3ef91016108d0565b505050565b600580546001600160a01b03838116610100818102610100600160a81b031985161790945560405193909204169182907f8be0079c531659141344cd1fd0a4f28419497f9722a3daafe3b4186f6b6457e090600090a35050565b610e80611031565b6005805460ff191660011790557f62e78cea01bee320cd4e420270b5ea74000d11b0c9f74754ebdbfc544b05a258610cc63390565b606060ff8314610ecf57610ec883611077565b90506103ba565b818054610edb906115a4565b80601f0160208091040260200160405190810160405280929190818152602001828054610f07906115a4565b8015610f545780601f10610f2957610100808354040283529160200191610f54565b820191906000526020600020905b815481529060010190602001808311610f3757829003601f168201915b505050505090506103ba565b6001600160a01b03811660009081526008602052604090208054600181018255905b50919050565b60006103ba610f95610b06565b8360405161190160f01b8152600281019290925260228201526042902090565b6000806000610fc6878787876110b6565b91509150610fd38161117a565b5095945050505050565b610e198383836112c4565b60055460ff166104255760405162461bcd60e51b815260206004820152601460248201527314185d5cd8589b194e881b9bdd081c185d5cd95960621b604482015260640161058f565b60055460ff16156104255760405162461bcd60e51b815260206004820152601060248201526f14185d5cd8589b194e881c185d5cd95960821b604482015260640161058f565b606060006110848361132a565b604080516020808252818301909252919250600091906020820181803683375050509182525060208101929092525090565b6000807f7fffffffffffffffffffffffffffffff5d576e7357a4501ddfe92f46681b20a08311156110ed5750600090506003611171565b6040805160008082526020820180845289905260ff881692820192909252606081018690526080810185905260019060a0016020604051602081039080840390855afa158015611141573d6000803e3d6000fd5b5050604051601f1901519150506001600160a01b03811661116a57600060019250925050611171565b9150600090505b94509492505050565b600081600481111561118e5761118e6115f9565b036111965750565b60018160048111156111aa576111aa6115f9565b036111f75760405162461bcd60e51b815260206004820152601860248201527f45434453413a20696e76616c6964207369676e61747572650000000000000000604482015260640161058f565b600281600481111561120b5761120b6115f9565b036112585760405162461bcd60e51b815260206004820152601f60248201527f45434453413a20696e76616c6964207369676e6174757265206c656e67746800604482015260640161058f565b600381600481111561126c5761126c6115f9565b036104315760405162461bcd60e51b815260206004820152602260248201527f45434453413a20696e76616c6964207369676e6174757265202773272076616c604482015261756560f01b606482015260840161058f565b60055460ff1615610e195760405162461bcd60e51b815260206004820152602a60248201527f45524332305061757361626c653a20746f6b656e207472616e736665722077686044820152691a5b19481c185d5cd95960b21b606482015260840161058f565b600060ff8216601f8111156103ba57604051632cd44ac360e21b815260040160405180910390fd5b6000815180845260005b818110156113785760208185018101518683018201520161135c565b506000602082860101526020601f19601f83011685010191505092915050565b6020815260006113ab6020830184611352565b9392505050565b80356001600160a01b03811681146113c957600080fd5b919050565b600080604083850312156113e157600080fd5b6113ea836113b2565b946020939093013593505050565b60008060006060848603121561140d57600080fd5b611416846113b2565b9250611424602085016113b2565b9150604084013590509250925092565b60006020828403121561144657600080fd5b5035919050565b60006020828403121561145f57600080fd5b6113ab826113b2565b60ff60f81b881681526000602060e08184015261148860e084018a611352565b838103604085015261149a818a611352565b606085018990526001600160a01b038816608086015260a0850187905284810360c0860152855180825283870192509083019060005b818110156114ec578351835292840192918401916001016114d0565b50909c9b505050505050505050505050565b600080600080600080600060e0888a03121561151957600080fd5b611522886113b2565b9650611530602089016113b2565b95506040880135945060608801359350608088013560ff8116811461155457600080fd5b9699959850939692959460a0840135945060c09093013592915050565b6000806040838503121561158457600080fd5b61158d836113b2565b915061159b602084016113b2565b90509250929050565b600181811c908216806115b857607f821691505b602082108103610f8257634e487b7160e01b600052602260045260246000fd5b808201808211156103ba57634e487b7160e01b600052601160045260246000fd5b634e487b7160e01b600052602160045260246000fdfea264697066735822122098c612f601d7af7d9df7c2a4270de5d632b78e67be8e600dc8f48a8cd30a3b2d64736f6c63430008130033a264697066735822122053bfa76bcd4b2bc7d2304f11f5b8fe059537506e5bd02121e77830e4b5fd1a6b64736f6c63430008130033",
  "linkReferences": {},
  "deployedLinkReferences": {}
}