{
  "_format": "hh-sol-artifact-1",
  "contractName": "TokenForgeFactory",
  "sourceName": "contracts/TokenForgeFactory.sol",
  "abi": [
    {
      "inputs": [
        {
          "internalType": "address",
          "name": "_stablecoinAddress",
          "type": "address"
        },
        {
          "internalType": "uint256",
          "name": "_creationFee",
          "type": "uint256"
        }
      ],
      "stateMutability": "nonpayable",
      "type": "constructor"
    },
    {
      "anonymous": false,
      "inputs": [
        {
          "indexed": true,
          "internalType": "address",
          "name": "previousOwner",
          "type": "address"
        },
        {
          "indexed": true,
          "internalType": "address",
          "name": "newOwner",
          "type": "address"
        }
      ],
      "name": "OwnershipTransferred",
      "type": "event"
    },
    {
      "anonymous": false,
      "inputs": [
        {
          "indexed": true,
          "internalType": "address",
          "name": "tokenAddress",
          "type": "address"
        },
        {
          "indexed": true,
          "internalType": "address",
          "name": "owner",
          "type": "address"
        },
        {
          "indexed": false,
          "internalType": "string",
          "name": "name",
          "type": "string"
        },
        {
          "indexed": false,
          "internalType": "string",
          "name": "symbol",
          "type": "string"
        },
        {
          "indexed": false,
          "internalType": "uint256",
          "name": "totalSupply",
          "type": "uint256"
        }
      ],
      "name": "TokenCreated",
      "type": "event"
    },
    {
      "inputs": [
        {
          "internalType": "string",
          "name": "name",
          "type": "string"
        },
        {
          "internalType": "string",
          "name": "symbol",
          "type": "string"
        },
        {
          "internalType": "uint8",
          "name": "decimals",
          "type": "uint8"
        },
        {
          "internalType": "uint256",
          "name": "totalSupply",
          "type": "uint256"
        },
        {
          "internalType": "bool",
          "name": "burnable",
          "type": "bool"
        },
        {
          "internalType": "bool",
          "name": "mintable",
          "type": "bool"
        },
        {
          "internalType": "bool",
          "name": "pausable",
          "type": "bool"
        }
      ],
      "name": "createToken",
      "outputs": [
        {
          "internalType": "address",
          "name": "",
          "type": "address"
        }
      ],
      "stateMutability": "nonpayable",
      "type": "function"
    },
    {
      "inputs": [],
      "name": "creationFee",
      "outputs": [
        {
          "internalType": "uint256",
          "name": "",
          "type": "uint256"
        }
      ],
      "stateMutability": "view",
      "type": "function"
    },
    {
      "inputs": [
        {
          "internalType": "address",
          "name": "creator",
          "type": "address"
        }
      ],
      "name": "getTokensByCreator",
      "outputs": [
        {
          "internalType": "address[]",
          "name": "",
          "type": "address[]"
        }
      ],
      "stateMutability": "view",
      "type": "function"
    },
    {
      "inputs": [],
      "name": "owner",
      "outputs": [
        {
          "internalType": "address",
          "name": "",
          "type": "address"
        }
      ],
      "stateMutability": "view",
      "type": "function"
    },
    {
      "inputs": [],
      "name": "renounceOwnership",
      "outputs": [],
      "stateMutability": "nonpayable",
      "type": "function"
    },
    {
      "inputs": [],
      "name": "stablecoinAddress",
      "outputs": [
        {
          "internalType": "address",
          "name": "",
          "type": "address"
        }
      ],
      "stateMutability": "view",
      "type": "function"
    },
    {
      "inputs": [
        {
          "internalType": "address",
          "name": "",
          "type": "address"
        }
      ],
      "name": "tokenDetails",
      "outputs": [
        {
          "internalType": "string",
          "name": "name",
          "type": "string"
        },
        {
          "internalType": "string",
          "name": "symbol",
          "type": "string"
        },
        {
          "internalType": "uint8",
          "name": "decimals",
          "type": "uint8"
        },
        {
          "internalType": "uint256",
          "name": "totalSupply",
          "type": "uint256"
        },
        {
          "internalType": "address",
          "name": "owner",
          "type": "address"
        },
        {
          "internalType": "bool",
          "name": "burnable",
          "type": "bool"
        },
        {
          "internalType": "bool",
          "name": "mintable",
          "type": "bool"
        },
        {
          "internalType": "bool",
          "name": "pausable",
          "type": "bool"
        },
        {
          "internalType": "uint256",
          "name": "creationTime",
          "type": "uint256"
        }
      ],
      "stateMutability": "view",
      "type": "function"
    },
    {
      "inputs": [
        {
          "internalType": "address",
          "name": "",
          "type": "address"
        },
        {
          "internalType": "uint256",
          "name": "",
          "type": "uint256"
        }
      ],
      "name": "tokensByCreator",
      "outputs": [
        {
          "internalType": "address",
          "name": "",
          "type": "address"
        }
      ],
      "stateMutability": "view",
      "type": "function"
    },
    {
      "inputs": [
        {
          "internalType": "address",
          "name": "newOwner",
          "type": "address"
        }
      ],
      "name": "transferOwnership",
      "outputs": [],
      "stateMutability": "nonpayable",
      "type": "function"
    },
    {
      "inputs": [
        {
          "internalType": "uint256",
          "name": "newFee",
          "type": "uint256"
        }
      ],
      "name": "updateCreationFee",
      "outputs": [],
      "stateMutability": "nonpayable",
      "type": "function"
    },
    {
      "inputs": [],
      "name": "withdrawFees",
      "outputs": [],
      "stateMutability": "nonpayable",
      "type": "function"
    }
  ],
  "bytecode": "0x608060405234801561001057600080fd5b506040516127f23803806127f283398101604081905261002f916100b5565b61003833610065565b60018055600380546001600160a01b0319166001600160a01b0393909316929092179091556002556100ef565b600080546001600160a01b038381166001600160a01b0319831681178455604051919092169283917f8be0079c531659141344cd1fd0a4f28419497f9722a3daafe3b4186f6b6457e09190a35050565b600080604083850312156100c857600080fd5b82516001600160a01b03811681146100df57600080fd5b6020939093015192949293505050565b6126f4806100fe6000396000f3fe60806040523480156200001157600080fd5b5060043610620000b75760003560e01c8063d5c71275116200007a578063d5c71275146200012c578063d80d03a21462000152578063dce0b4e41462000169578063dd4be6831462000182578063f11ed25114620001b0578063f2fde38b14620001c757600080fd5b8063476343ee14620000bc578063615737ef14620000c85780636fa2379514620000f9578063715018a614620001105780638da5cb5b146200011a575b600080fd5b620000c6620001de565b005b600354620000dc906001600160a01b031681565b6040516001600160a01b0390911681526020015b60405180910390f35b620000c66200010a366004620009f8565b6200033c565b620000c66200034b565b6000546001600160a01b0316620000dc565b620001436200013d36600462000a2f565b62000363565b604051620000f0919062000a54565b620000dc6200016336600462000aa3565b620003db565b6200017360025481565b604051908152602001620000f0565b620001996200019336600462000a2f565b62000414565b604051620000f09998979695949392919062000b18565b620000dc620001c136600462000c54565b62000596565b620000c6620001d836600462000a2f565b62000867565b620001e8620008e3565b6003546040516370a0823160e01b81523060048201526000916001600160a01b0316906370a0823190602401602060405180830381865afa15801562000232573d6000803e3d6000fd5b505050506040513d601f19601f8201168201806040525081019062000258919062000d1c565b6003549091506001600160a01b031663a9059cbb6200027f6000546001600160a01b031690565b6040516001600160e01b031960e084901b1681526001600160a01b039091166004820152602481018490526044016020604051808303816000875af1158015620002cd573d6000803e3d6000fd5b505050506040513d601f19601f82011682018060405250810190620002f3919062000d36565b620003395760405162461bcd60e51b815260206004820152601160248201527015da5d1a191c985dd85b0819985a5b1959607a1b60448201526064015b60405180910390fd5b50565b62000346620008e3565b600255565b62000355620008e3565b6200036160006200093f565b565b6001600160a01b038116600090815260046020908152604091829020805483518184028101840190945280845260609392830182828015620003cf57602002820191906000526020600020905b81546001600160a01b03168152600190910190602001808311620003b0575b50505050509050919050565b60046020528160005260406000208181548110620003f857600080fd5b6000918252602090912001546001600160a01b03169150829050565b600560205260009081526040902080548190620004319062000d56565b80601f01602080910402602001604051908101604052809291908181526020018280546200045f9062000d56565b8015620004b05780601f106200048457610100808354040283529160200191620004b0565b820191906000526020600020905b8154815290600101906020018083116200049257829003601f168201915b505050505090806001018054620004c79062000d56565b80601f0160208091040260200160405190810160405280929190818152602001828054620004f59062000d56565b8015620005465780601f106200051a5761010080835404028352916020019162000546565b820191906000526020600020905b8154815290600101906020018083116200052857829003601f168201915b505050600284015460038501546004860154600590960154949560ff928316959194506001600160a01b0381169350600160a01b8104831692600160a81b8204811692600160b01b909204169089565b6000620005a26200098f565b6003546002546040516323b872dd60e01b815233600482015230602482015260448101919091526001600160a01b03909116906323b872dd906064016020604051808303816000875af1158015620005fe573d6000803e3d6000fd5b505050506040513d601f19601f8201168201806040525081019062000624919062000d36565b620006685760405162461bcd60e51b8152602060048201526013602482015272119959481d1c985b9cd9995c8819985a5b1959606a1b604482015260640162000330565b600088888888338989896040516200068090620009ea565b6200069398979695949392919062000d92565b604051809103906000f080158015620006b0573d6000803e3d6000fd5b5033600081815260046020908152604080832080546001810182559084528284200180546001600160a01b0319166001600160a01b0387169081179091558151610120810183528f81528084018f905260ff8e1681840152606081018d905260808101959095528a151560a086015289151560c086015288151560e08601524261010086015283526005909152902081519293509091819062000754908262000e54565b50602082015160018201906200076b908262000e54565b5060408281015160028301805460ff90921660ff1990921691909117905560608301516003830155608083015160048301805460a086015160c087015160e08801511515600160b01b0260ff60b01b19911515600160a81b029190911661ffff60a81b19921515600160a01b026001600160a81b03199094166001600160a01b0396871617939093179190911691909117179055610100909301516005909201919091555133918316907f6e6ae68e7d7d45fbd855c40d1eaafa8de46c5fbec3ee26f1af88730e400bc92c9062000848908d908d908c9062000f21565b60405180910390a390506200085c60018055565b979650505050505050565b62000871620008e3565b6001600160a01b038116620008d85760405162461bcd60e51b815260206004820152602660248201527f4f776e61626c653a206e6577206f776e657220697320746865207a65726f206160448201526564647265737360d01b606482015260840162000330565b62000339816200093f565b6000546001600160a01b03163314620003615760405162461bcd60e51b815260206004820181905260248201527f4f776e61626c653a2063616c6c6572206973206e6f7420746865206f776e6572604482015260640162000330565b600080546001600160a01b038381166001600160a01b0319831681178455604051919092169283917f8be0079c531659141344cd1fd0a4f28419497f9722a3daafe3b4186f6b6457e09190a35050565b600260015403620009e35760405162461bcd60e51b815260206004820152601f60248201527f5265656e7472616e637947756172643a207265656e7472616e742063616c6c00604482015260640162000330565b6002600155565b6117638062000f5c83390190565b60006020828403121562000a0b57600080fd5b5035919050565b80356001600160a01b038116811462000a2a57600080fd5b919050565b60006020828403121562000a4257600080fd5b62000a4d8262000a12565b9392505050565b6020808252825182820181905260009190848201906040850190845b8181101562000a975783516001600160a01b03168352928401929184019160010162000a70565b50909695505050505050565b6000806040838503121562000ab757600080fd5b62000ac28362000a12565b946020939093013593505050565b6000815180845260005b8181101562000af85760208185018101518683018201520162000ada565b506000602082860101526020601f19601f83011685010191505092915050565b600061012080835262000b2e8184018d62000ad0565b9050828103602084015262000b44818c62000ad0565b60ff9a909a166040840152505060608101969096526001600160a01b0394909416608086015291151560a0850152151560c0840152151560e08301526101009091015292915050565b634e487b7160e01b600052604160045260246000fd5b600082601f83011262000bb557600080fd5b813567ffffffffffffffff8082111562000bd35762000bd362000b8d565b604051601f8301601f19908116603f0116810190828211818310171562000bfe5762000bfe62000b8d565b8160405283815286602085880101111562000c1857600080fd5b836020870160208301376000602085830101528094505050505092915050565b80151581146200033957600080fd5b803562000a2a8162000c38565b600080600080600080600060e0888a03121562000c7057600080fd5b873567ffffffffffffffff8082111562000c8957600080fd5b62000c978b838c0162000ba3565b985060208a013591508082111562000cae57600080fd5b5062000cbd8a828b0162000ba3565b965050604088013560ff8116811462000cd557600080fd5b945060608801359350608088013562000cee8162000c38565b925062000cfe60a0890162000c47565b915062000d0e60c0890162000c47565b905092959891949750929550565b60006020828403121562000d2f57600080fd5b5051919050565b60006020828403121562000d4957600080fd5b815162000a4d8162000c38565b600181811c9082168062000d6b57607f821691505b60208210810362000d8c57634e487b7160e01b600052602260045260246000fd5b50919050565b600061010080835262000da88184018c62000ad0565b9050828103602084015262000dbe818b62000ad0565b60ff999099166040840152505060608101959095526001600160a01b0393909316608085015290151560a0840152151560c0830152151560e09091015292915050565b601f82111562000e4f57600081815260208120601f850160051c8101602086101562000e2a5750805b601f850160051c820191505b8181101562000e4b5782815560010162000e36565b5050505b505050565b815167ffffffffffffffff81111562000e715762000e7162000b8d565b62000e898162000e82845462000d56565b8462000e01565b602080601f83116001811462000ec1576000841562000ea85750858301515b600019600386901b1c1916600185901b17855562000e4b565b600085815260208120601f198616915b8281101562000ef25788860151825594840194600190910190840162000ed1565b508582101562000f115787850151600019600388901b60f8161c191681555b5050505050600190811b01905550565b60608152600062000f36606083018662000ad0565b828103602084015262000f4a818662000ad0565b91505082604083015294935050505056fe60806040523480156200001157600080fd5b5060405162001763380380620017638339810160408190526200003491620003f3565b878760036200004483826200055a565b5060046200005382826200055a565b50506005805460ff19169055506200006b3362000108565b6005805461ffff60a81b1916600160a81b60ff89160260ff60b01b191617600160b01b841515021760ff60b81b1916600160b81b85151502179055620000b18462000108565b620000e984620000ca600554600160a81b900460ff1690565b620000d790600a6200073b565b620000e3908862000753565b62000162565b8015620000fa57620000fa62000237565b505050505050505062000783565b600580546001600160a01b03838116610100818102610100600160a81b031985161790945560405193909204169182907f8be0079c531659141344cd1fd0a4f28419497f9722a3daafe3b4186f6b6457e090600090a35050565b6001600160a01b038216620001be5760405162461bcd60e51b815260206004820152601f60248201527f45524332303a206d696e7420746f20746865207a65726f20616464726573730060448201526064015b60405180910390fd5b620001cc6000838362000294565b8060026000828254620001e091906200076d565b90915550506001600160a01b038216600081815260208181526040808320805486019055518481527fddf252ad1be2c89b69c2b068fc378daa952ba7f163c4a11628f55a4df523b3ef910160405180910390a35050565b62000241620002b6565b6005805460ff191660011790557f62e78cea01bee320cd4e420270b5ea74000d11b0c9f74754ebdbfc544b05a258620002773390565b6040516001600160a01b03909116815260200160405180910390a1565b6200029e620002b6565b620002b18383836001600160e01b038416565b505050565b60055460ff1615620002fe5760405162461bcd60e51b815260206004820152601060248201526f14185d5cd8589b194e881c185d5cd95960821b6044820152606401620001b5565b565b634e487b7160e01b600052604160045260246000fd5b600082601f8301126200032857600080fd5b81516001600160401b038082111562000345576200034562000300565b604051601f8301601f19908116603f0116810190828211818310171562000370576200037062000300565b816040528381526020925086838588010111156200038d57600080fd5b600091505b83821015620003b1578582018301518183018401529082019062000392565b600093810190920192909252949350505050565b80516001600160a01b0381168114620003dd57600080fd5b919050565b80518015158114620003dd57600080fd5b600080600080600080600080610100898b0312156200041157600080fd5b88516001600160401b03808211156200042957600080fd5b620004378c838d0162000316565b995060208b01519150808211156200044e57600080fd5b506200045d8b828c0162000316565b975050604089015160ff811681146200047557600080fd5b60608a015190965094506200048d60808a01620003c5565b93506200049d60a08a01620003e2565b9250620004ad60c08a01620003e2565b9150620004bd60e08a01620003e2565b90509295985092959890939650565b600181811c90821680620004e157607f821691505b6020821081036200050257634e487b7160e01b600052602260045260246000fd5b50919050565b601f821115620002b157600081815260208120601f850160051c81016020861015620005315750805b601f850160051c820191505b8181101562000552578281556001016200053d565b505050505050565b81516001600160401b0381111562000576576200057662000300565b6200058e81620005878454620004cc565b8462000508565b602080601f831160018114620005c65760008415620005ad5750858301515b600019600386901b1c1916600185901b17855562000552565b600085815260208120601f198616915b82811015620005f757888601518255948401946001909101908401620005d6565b5085821015620006165787850151600019600388901b60f8161c191681555b5050505050600190811b01905550565b634e487b7160e01b600052601160045260246000fd5b600181815b808511156200067d57816000190482111562000661576200066162000626565b808516156200066f57918102915b93841c939080029062000641565b509250929050565b600082620006965750600162000735565b81620006a55750600062000735565b8160018114620006be5760028114620006c957620006e9565b600191505062000735565b60ff841115620006dd57620006dd62000626565b50506001821b62000735565b5060208310610133831016604e8410600b84101617156200070e575081810a62000735565b6200071a83836200063c565b806000190482111562000731576200073162000626565b0290505b92915050565b60006200074c60ff84168362000685565b9392505050565b808202811582820484141762000735576200073562000626565b8082018082111562000735576200073562000626565b610fd080620007936000396000f3fe608060405234801561001057600080fd5b50600436106101425760003560e01c806370a08231116100b85780638da5cb5b1161007c5780638da5cb5b1461028e57806395d89b41146102b7578063a457c2d7146102bf578063a9059cbb146102d2578063dd62ed3e146102e5578063f2fde38b146102f857600080fd5b806370a082311461022e578063715018a61461025757806379cc67901461025f5780638456cb5914610272578063883356d91461027a57600080fd5b8063395093511161010a57806339509351146101cc5780633f4ba83a146101df57806340c10f19146101e957806342966c68146101fc57806346b45af71461020f5780635c975abb1461022357600080fd5b806306fdde0314610147578063095ea7b31461016557806318160ddd1461018857806323b872dd1461019a578063313ce567146101ad575b600080fd5b61014f61030b565b60405161015c9190610e01565b60405180910390f35b610178610173366004610e6b565b61039d565b604051901515815260200161015c565b6002545b60405190815260200161015c565b6101786101a8366004610e95565b6103b7565b600554600160a81b900460ff1660405160ff909116815260200161015c565b6101786101da366004610e6b565b6103db565b6101e76103fd565b005b6101e76101f7366004610e6b565b61040f565b6101e761020a366004610ed1565b6104bc565b60055461017890600160b01b900460ff1681565b60055460ff16610178565b61018c61023c366004610eea565b6001600160a01b031660009081526020819052604090205490565b6101e761054c565b6101e761026d366004610e6b565b61055e565b6101e7610577565b60055461017890600160b81b900460ff1681565b60055461010090046001600160a01b03166040516001600160a01b03909116815260200161015c565b61014f610587565b6101786102cd366004610e6b565b610596565b6101786102e0366004610e6b565b610611565b61018c6102f3366004610f0c565b61061f565b6101e7610306366004610eea565b61064a565b60606003805461031a90610f3f565b80601f016020809104026020016040519081016040528092919081815260200182805461034690610f3f565b80156103935780601f1061036857610100808354040283529160200191610393565b820191906000526020600020905b81548152906001019060200180831161037657829003601f168201915b5050505050905090565b6000336103ab8185856106c3565b60019150505b92915050565b6000336103c58582856107e8565b6103d0858585610862565b506001949350505050565b6000336103ab8185856103ee838361061f565b6103f89190610f79565b6106c3565b610405610a11565b61040d610a71565b565b610417610a11565b600554600160b01b900460ff1661046b5760405162461bcd60e51b8152602060048201526013602482015272135a5b9d1a5b99c81a5cc8191a5cd8589b1959606a1b60448201526064015b60405180910390fd5b6104758282610ac3565b816001600160a01b03167fb9144c96c86541f6fa89c9f2f02495cccf4b08cd6643e26d34ee00aa586558a8826040516104b091815260200190565b60405180910390a25050565b600554600160b81b900460ff1661050b5760405162461bcd60e51b8152602060048201526013602482015272109d5c9b9a5b99c81a5cc8191a5cd8589b1959606a1b6044820152606401610462565b61051481610b8e565b60405181815233907f1af5163f80e79b5e554f61e1d052084d3a3fe1166e42a265798c4e2ddce8ffa29060200160405180910390a250565b610554610a11565b61040d6000610b98565b6105698233836107e8565b6105738282610bf2565b5050565b61057f610a11565b61040d610d28565b60606004805461031a90610f3f565b600033816105a4828661061f565b9050838110156106045760405162461bcd60e51b815260206004820152602560248201527f45524332303a2064656372656173656420616c6c6f77616e63652062656c6f77604482015264207a65726f60d81b6064820152608401610462565b6103d082868684036106c3565b6000336103ab818585610862565b6001600160a01b03918216600090815260016020908152604080832093909416825291909152205490565b610652610a11565b6001600160a01b0381166106b75760405162461bcd60e51b815260206004820152602660248201527f4f776e61626c653a206e6577206f776e657220697320746865207a65726f206160448201526564647265737360d01b6064820152608401610462565b6106c081610b98565b50565b6001600160a01b0383166107255760405162461bcd60e51b8152602060048201526024808201527f45524332303a20617070726f76652066726f6d20746865207a65726f206164646044820152637265737360e01b6064820152608401610462565b6001600160a01b0382166107865760405162461bcd60e51b815260206004820152602260248201527f45524332303a20617070726f766520746f20746865207a65726f206164647265604482015261737360f01b6064820152608401610462565b6001600160a01b0383811660008181526001602090815260408083209487168084529482529182902085905590518481527f8c5be1e5ebec7d5bd14f71427d1e84f3dd0314c0f7b2291e5b200ac8c7c3b92591015b60405180910390a3505050565b60006107f4848461061f565b9050600019811461085c578181101561084f5760405162461bcd60e51b815260206004820152601d60248201527f45524332303a20696e73756666696369656e7420616c6c6f77616e63650000006044820152606401610462565b61085c84848484036106c3565b50505050565b6001600160a01b0383166108c65760405162461bcd60e51b815260206004820152602560248201527f45524332303a207472616e736665722066726f6d20746865207a65726f206164604482015264647265737360d81b6064820152608401610462565b6001600160a01b0382166109285760405162461bcd60e51b815260206004820152602360248201527f45524332303a207472616e7366657220746f20746865207a65726f206164647260448201526265737360e81b6064820152608401610462565b610933838383610d65565b6001600160a01b038316600090815260208190526040902054818110156109ab5760405162461bcd60e51b815260206004820152602660248201527f45524332303a207472616e7366657220616d6f756e7420657863656564732062604482015265616c616e636560d01b6064820152608401610462565b6001600160a01b03848116600081815260208181526040808320878703905593871680835291849020805487019055925185815290927fddf252ad1be2c89b69c2b068fc378daa952ba7f163c4a11628f55a4df523b3ef910160405180910390a361085c565b6005546001600160a01b0361010090910416331461040d5760405162461bcd60e51b815260206004820181905260248201527f4f776e61626c653a2063616c6c6572206973206e6f7420746865206f776e65726044820152606401610462565b610a79610d72565b6005805460ff191690557f5db9ee0a495bf2e6ff9c91a7834c1ba4fdd244a5e8aa4e537bd38aeae4b073aa335b6040516001600160a01b03909116815260200160405180910390a1565b6001600160a01b038216610b195760405162461bcd60e51b815260206004820152601f60248201527f45524332303a206d696e7420746f20746865207a65726f2061646472657373006044820152606401610462565b610b2560008383610d65565b8060026000828254610b379190610f79565b90915550506001600160a01b038216600081815260208181526040808320805486019055518481527fddf252ad1be2c89b69c2b068fc378daa952ba7f163c4a11628f55a4df523b3ef910160405180910390a35050565b6106c03382610bf2565b600580546001600160a01b03838116610100818102610100600160a81b031985161790945560405193909204169182907f8be0079c531659141344cd1fd0a4f28419497f9722a3daafe3b4186f6b6457e090600090a35050565b6001600160a01b038216610c525760405162461bcd60e51b815260206004820152602160248201527f45524332303a206275726e2066726f6d20746865207a65726f206164647265736044820152607360f81b6064820152608401610462565b610c5e82600083610d65565b6001600160a01b03821660009081526020819052604090205481811015610cd25760405162461bcd60e51b815260206004820152602260248201527f45524332303a206275726e20616d6f756e7420657863656564732062616c616e604482015261636560f01b6064820152608401610462565b6001600160a01b0383166000818152602081815260408083208686039055600280548790039055518581529192917fddf252ad1be2c89b69c2b068fc378daa952ba7f163c4a11628f55a4df523b3ef91016107db565b610d30610dbb565b6005805460ff191660011790557f62e78cea01bee320cd4e420270b5ea74000d11b0c9f74754ebdbfc544b05a258610aa63390565b610d6d610dbb565b505050565b60055460ff1661040d5760405162461bcd60e51b815260206004820152601460248201527314185d5cd8589b194e881b9bdd081c185d5cd95960621b6044820152606401610462565b60055460ff161561040d5760405162461bcd60e51b815260206004820152601060248201526f14185d5cd8589b194e881c185d5cd95960821b6044820152606401610462565b600060208083528351808285015260005b81811015610e2e57858101830151858201604001528201610e12565b506000604082860101526040601f19601f8301168501019250505092915050565b80356001600160a01b0381168114610e6657600080fd5b919050565b60008060408385031215610e7e57600080fd5b610e8783610e4f565b946020939093013593505050565b600080600060608486031215610eaa57600080fd5b610eb384610e4f565b9250610ec160208501610e4f565b9150604084013590509250925092565b600060208284031215610ee357600080fd5b5035919050565b600060208284031215610efc57600080fd5b610f0582610e4f565b9392505050565b60008060408385031215610f1f57600080fd5b610f2883610e4f565b9150610f3660208401610e4f565b90509250929050565b600181811c90821680610f5357607f821691505b602082108103610f7357634e487b7160e01b600052602260045260246000fd5b50919050565b808201808211156103b157634e487b7160e01b600052601160045260246000fdfea2646970667358221220b452db22f0542870b750f438d60d871ececaf6af7c2890d5180a89002158970864736f6c63430008130033a2646970667358221220ce5202953112cbecbbd3c8b94a4ab37525595d497686f171e0a30fec93dd291964736f6c63430008130033",
  "linkReferences": {},
  "deployedLinkReferences": {}
}