{
  "_format": "hh-sol-artifact-1",
  "contractName": "TokenForgeLaunchpad",
  "sourceName": "contracts/TokenForgeLaunchpad.sol",
  "abi": [
    {
      "inputs": [
        {
          "internalType": "address",
          "name": "_platformToken",
          "type": "address"
        }
      ],
      "stateMutability": "nonpayable",
      "type": "constructor"
    },
    {
      "anonymous": false,
      "inputs": [
        {
          "indexed": true,
          "internalType": "uint256",
          "name": "poolId",
          "type": "uint256"
        },
        {
          "indexed": true,
          "internalType": "address",
          "name": "contributor",
          "type": "address"
        },
        {
          "indexed": false,
          "internalType": "uint256",
          "name": "amount",
          "type": "uint256"
        }
      ],
      "name": "Contributed",
      "type": "event"
    },
    {
      "anonymous": false,
      "inputs": [
        {
          "indexed": true,
          "internalType": "address",
          "name": "previousOwner",
          "type": "address"
        },
        {
          "indexed": true,
          "internalType": "address",
          "name": "newOwner",
          "type": "address"
        }
      ],
      "name": "OwnershipTransferred",
      "type": "event"
    },
    {
      "anonymous": false,
      "inputs": [
        {
          "indexed": true,
          "internalType": "uint256",
          "name": "poolId",
          "type": "uint256"
        }
      ],
      "name": "PoolCancelled",
      "type": "event"
    },
    {
      "anonymous": false,
      "inputs": [
        {
          "indexed": true,
          "internalType": "uint256",
          "name": "poolId",
          "type": "uint256"
        },
        {
          "indexed": true,
          "internalType": "address",
          "name": "token",
          "type": "address"
        }
      ],
      "name": "PoolCreated",
      "type": "event"
    },
    {
      "anonymous": false,
      "inputs": [
        {
          "indexed": true,
          "internalType": "uint256",
          "name": "poolId",
          "type": "uint256"
        }
      ],
      "name": "PoolFinalized",
      "type": "event"
    },
    {
      "anonymous": false,
      "inputs": [
        {
          "indexed": true,
          "internalType": "uint256",
          "name": "poolId",
          "type": "uint256"
        },
        {
          "indexed": true,
          "internalType": "address",
          "name": "contributor",
          "type": "address"
        },
        {
          "indexed": false,
          "internalType": "uint256",
          "name": "amount",
          "type": "uint256"
        }
      ],
      "name": "RefundClaimed",
      "type": "event"
    },
    {
      "anonymous": false,
      "inputs": [
        {
          "indexed": true,
          "internalType": "uint256",
          "name": "poolId",
          "type": "uint256"
        },
        {
          "indexed": true,
          "internalType": "address",
          "name": "contributor",
          "type": "address"
        },
        {
          "indexed": false,
          "internalType": "uint256",
          "name": "amount",
          "type": "uint256"
        }
      ],
      "name": "TokensClaimed",
      "type": "event"
    },
    {
      "inputs": [
        {
          "internalType": "uint256",
          "name": "_poolId",
          "type": "uint256"
        }
      ],
      "name": "cancelPool",
      "outputs": [],
      "stateMutability": "nonpayable",
      "type": "function"
    },
    {
      "inputs": [
        {
          "internalType": "uint256",
          "name": "_poolId",
          "type": "uint256"
        }
      ],
      "name": "claimRefund",
      "outputs": [],
      "stateMutability": "nonpayable",
      "type": "function"
    },
    {
      "inputs": [
        {
          "internalType": "uint256",
          "name": "_poolId",
          "type": "uint256"
        }
      ],
      "name": "claimTokens",
      "outputs": [],
      "stateMutability": "nonpayable",
      "type": "function"
    },
    {
      "inputs": [
        {
          "internalType": "uint256",
          "name": "_poolId",
          "type": "uint256"
        }
      ],
      "name": "contribute",
      "outputs": [],
      "stateMutability": "payable",
      "type": "function"
    },
    {
      "inputs": [
        {
          "internalType": "address",
          "name": "_token",
          "type": "address"
        },
        {
          "internalType": "uint256",
          "name": "_tokenPrice",
          "type": "uint256"
        },
        {
          "internalType": "uint256",
          "name": "_hardCap",
          "type": "uint256"
        },
        {
          "internalType": "uint256",
          "name": "_softCap",
          "type": "uint256"
        },
        {
          "internalType": "uint256",
          "name": "_minContribution",
          "type": "uint256"
        },
        {
          "internalType": "uint256",
          "name": "_maxContribution",
          "type": "uint256"
        },
        {
          "internalType": "uint256",
          "name": "_startTime",
          "type": "uint256"
        },
        {
          "internalType": "uint256",
          "name": "_endTime",
          "type": "uint256"
        }
      ],
      "name": "createPool",
      "outputs": [
        {
          "internalType": "uint256",
          "name": "",
          "type": "uint256"
        }
      ],
      "stateMutability": "nonpayable",
      "type": "function"
    },
    {
      "inputs": [
        {
          "internalType": "uint256",
          "name": "_poolId",
          "type": "uint256"
        }
      ],
      "name": "finalizePool",
      "outputs": [],
      "stateMutability": "nonpayable",
      "type": "function"
    },
    {
      "inputs": [
        {
          "internalType": "uint256",
          "name": "_poolId",
          "type": "uint256"
        },
        {
          "internalType": "address",
          "name": "_contributor",
          "type": "address"
        }
      ],
      "name": "getContribution",
      "outputs": [
        {
          "internalType": "uint256",
          "name": "",
          "type": "uint256"
        }
      ],
      "stateMutability": "view",
      "type": "function"
    },
    {
      "inputs": [
        {
          "internalType": "uint256",
          "name": "_poolId",
          "type": "uint256"
        }
      ],
      "name": "getPoolInfo",
      "outputs": [
        {
          "internalType": "address",
          "name": "token",
          "type": "address"
        },
        {
          "internalType": "uint256",
          "name": "tokenPrice",
          "type": "uint256"
        },
        {
          "internalType": "uint256",
          "name": "hardCap",
          "type": "uint256"
        },
        {
          "internalType": "uint256",
          "name": "softCap",
          "type": "uint256"
        },
        {
          "internalType": "uint256",
          "name": "totalRaised",
          "type": "uint256"
        },
        {
          "internalType": "uint256",
          "name": "startTime",
          "type": "uint256"
        },
        {
          "internalType": "uint256",
          "name": "endTime",
          "type": "uint256"
        },
        {
          "internalType": "bool",
          "name": "finalized",
          "type": "bool"
        },
        {
          "internalType": "bool",
          "name": "cancelled",
          "type": "bool"
        }
      ],
      "stateMutability": "view",
      "type": "function"
    },
    {
      "inputs": [],
      "name": "owner",
      "outputs": [
        {
          "internalType": "address",
          "name": "",
          "type": "address"
        }
      ],
      "stateMutability": "view",
      "type": "function"
    },
    {
      "inputs": [],
      "name": "platformFee",
      "outputs": [
        {
          "internalType": "uint256",
          "name": "",
          "type": "uint256"
        }
      ],
      "stateMutability": "view",
      "type": "function"
    },
    {
      "inputs": [],
      "name": "platformToken",
      "outputs": [
        {
          "internalType": "contract IERC20",
          "name": "",
          "type": "address"
        }
      ],
      "stateMutability": "view",
      "type": "function"
    },
    {
      "inputs": [],
      "name": "poolCount",
      "outputs": [
        {
          "internalType": "uint256",
          "name": "",
          "type": "uint256"
        }
      ],
      "stateMutability": "view",
      "type": "function"
    },
    {
      "inputs": [
        {
          "internalType": "uint256",
          "name": "",
          "type": "uint256"
        }
      ],
      "name": "pools",
      "outputs": [
        {
          "internalType": "contract ITokenForgeToken",
          "name": "token",
          "type": "address"
        },
        {
          "internalType": "uint256",
          "name": "tokenPrice",
          "type": "uint256"
        },
        {
          "internalType": "uint256",
          "name": "hardCap",
          "type": "uint256"
        },
        {
          "internalType": "uint256",
          "name": "softCap",
          "type": "uint256"
        },
        {
          "internalType": "uint256",
          "name": "minContribution",
          "type": "uint256"
        },
        {
          "internalType": "uint256",
          "name": "maxContribution",
          "type": "uint256"
        },
        {
          "internalType": "uint256",
          "name": "startTime",
          "type": "uint256"
        },
        {
          "internalType": "uint256",
          "name": "endTime",
          "type": "uint256"
        },
        {
          "internalType": "uint256",
          "name": "totalRaised",
          "type": "uint256"
        },
        {
          "internalType": "uint256",
          "name": "totalTokensSold",
          "type": "uint256"
        },
        {
          "internalType": "bool",
          "name": "finalized",
          "type": "bool"
        },
        {
          "internalType": "bool",
          "name": "cancelled",
          "type": "bool"
        }
      ],
      "stateMutability": "view",
      "type": "function"
    },
    {
      "inputs": [],
      "name": "renounceOwnership",
      "outputs": [],
      "stateMutability": "nonpayable",
      "type": "function"
    },
    {
      "inputs": [
        {
          "internalType": "uint256",
          "name": "_newFee",
          "type": "uint256"
        }
      ],
      "name": "setPlatformFee",
      "outputs": [],
      "stateMutability": "nonpayable",
      "type": "function"
    },
    {
      "inputs": [
        {
          "internalType": "address",
          "name": "newOwner",
          "type": "address"
        }
      ],
      "name": "transferOwnership",
      "outputs": [],
      "stateMutability": "nonpayable",
      "type": "function"
    }
  ],
  "bytecode": "0x608060405234801561001057600080fd5b5060405161191538038061191583398101604081905261002f916100b9565b600160005561003d33610067565b600480546001600160a01b0319166001600160a01b039290921691909117905560646005556100e9565b600180546001600160a01b038381166001600160a01b0319831681179093556040519116919082907f8be0079c531659141344cd1fd0a4f28419497f9722a3daafe3b4186f6b6457e090600090a35050565b6000602082840312156100cb57600080fd5b81516001600160a01b03811681146100e257600080fd5b9392505050565b61181d806100f86000396000f3fe6080604052600436106100f35760003560e01c8063ac4afa381161008a578063d82cf36e11610059578063d82cf36e146103f6578063e081dbf914610416578063f2fde38b14610436578063f525cb681461045657600080fd5b8063ac4afa38146102b2578063c1cbbca7146103a3578063c5a1f434146103b6578063d1b812cd146103d657600080fd5b80635b7baf64116100c65780635b7baf641461022b578063715018a61461024b578063827c7889146102605780638da5cb5b1461028057600080fd5b806312e8e2c3146100f857806326232a2e1461011a5780632f380b351461014357806346e04a2f1461020b575b600080fd5b34801561010457600080fd5b506101186101133660046115ff565b61046c565b005b34801561012657600080fd5b5061013060055481565b6040519081526020015b60405180910390f35b34801561014f57600080fd5b506101b961015e3660046115ff565b600090815260026020819052604090912080546001820154928201546003830154600884015460068501546007860154600a909601546001600160a01b039095169793959294919390929160ff808216926101009092041690565b604080516001600160a01b03909a168a5260208a0198909852968801959095526060870193909352608086019190915260a085015260c0840152151560e083015215156101008201526101200161013a565b34801561021757600080fd5b506101186102263660046115ff565b6104bf565b34801561023757600080fd5b506101186102463660046115ff565b6106bb565b34801561025757600080fd5b50610118610814565b34801561026c57600080fd5b5061011861027b3660046115ff565b610828565b34801561028c57600080fd5b506001546001600160a01b03165b6040516001600160a01b03909116815260200161013a565b3480156102be57600080fd5b5061033c6102cd3660046115ff565b600260208190526000918252604090912080546001820154928201546003830154600484015460058501546006860154600787015460088801546009890154600a909901546001600160a01b039098169998969795969495939492939192909160ff808216916101009004168c565b604080516001600160a01b03909d168d5260208d019b909b52998b019890985260608a0196909652608089019490945260a088019290925260c087015260e0860152610100850152610120840152151561014083015215156101608201526101800161013a565b6101186103b13660046115ff565b610b1c565b3480156103c257600080fd5b506101186103d13660046115ff565b610db2565b3480156103e257600080fd5b5060045461029a906001600160a01b031681565b34801561040257600080fd5b5061013061041136600461162d565b6110ea565b34801561042257600080fd5b5061013061043136600461168b565b611420565b34801561044257600080fd5b506101186104513660046116bb565b61144d565b34801561046257600080fd5b5061013060035481565b6104746114c3565b6103e88111156104ba5760405162461bcd60e51b815260206004820152600c60248201526b08ccaca40e8dede40d0d2ced60a31b60448201526064015b60405180910390fd5b600555565b6104c761151d565b6000818152600260205260409020600a81015460ff1661051e5760405162461bcd60e51b8152602060048201526012602482015271141bdbdb081b9bdd08199a5b985b1a5e995960721b60448201526064016104b1565b336000908152600b820160205260409020548061056f5760405162461bcd60e51b815260206004820152600f60248201526e27379031b7b73a3934b13aba34b7b760891b60448201526064016104b1565b60018201546000906105939061058d84670de0b6b3a7640000611576565b90611589565b336000908152600b8501602052604081205560098401549091506105b79082611595565b6009840155825460405163a9059cbb60e01b8152336004820152602481018390526001600160a01b039091169063a9059cbb906044016020604051808303816000875af115801561060c573d6000803e3d6000fd5b505050506040513d601f19601f8201168201806040525081019061063091906116d8565b6106745760405162461bcd60e51b8152602060048201526015602482015274151bdad95b881d1c985b9cd9995c8819985a5b1959605a1b60448201526064016104b1565b604051818152339085907f880f2ef2613b092f1a0a819f294155c98667eb294b7e6bf7a3810278142c1a1c9060200160405180910390a35050506106b86001600055565b50565b6106c361151d565b6000818152600260205260409020600a810154610100900460ff16806106fe57508060070154421180156106fe575080600301548160080154105b6107415760405162461bcd60e51b8152602060048201526014602482015273526566756e64206e6f7420617661696c61626c6560601b60448201526064016104b1565b336000908152600b82016020526040902054806107925760405162461bcd60e51b815260206004820152600f60248201526e27379031b7b73a3934b13aba34b7b760891b60448201526064016104b1565b336000818152600b840160205260408082208290555183156108fc0291849190818181858888f193505050501580156107cf573d6000803e3d6000fd5b50604051818152339084907ff3f402280ef0a7905e124aa621b65eaeb2725c343e8b36d398ed78c29daf285c906020015b60405180910390a350506106b86001600055565b61081c6114c3565b61082660006115a1565b565b60008181526002602052604090206001546001600160a01b03163314806108cc5750805460408051638da5cb5b60e01b815290516001600160a01b0390921691638da5cb5b916004808201926020929091908290030181865afa158015610893573d6000803e3d6000fd5b505050506040513d601f19601f820116820180604052508101906108b791906116fa565b6001600160a01b0316336001600160a01b0316145b6109095760405162461bcd60e51b815260206004820152600e60248201526d139bdd08185d5d1a1bdc9a5e995960921b60448201526064016104b1565b600a81015460ff161580156109285750600a810154610100900460ff16155b6109445760405162461bcd60e51b81526004016104b190611717565b600a8101805461ff00191661010017905580546040516370a0823160e01b81523060048201526000916001600160a01b0316906370a0823190602401602060405180830381865afa15801561099d573d6000803e3d6000fd5b505050506040513d601f19601f820116820180604052508101906109c19190611740565b825460408051638da5cb5b60e01b815290519293506001600160a01b039091169163a9059cbb918391638da5cb5b916004808201926020929091908290030181865afa158015610a15573d6000803e3d6000fd5b505050506040513d601f19601f82011682018060405250810190610a3991906116fa565b6040516001600160e01b031960e084901b1681526001600160a01b039091166004820152602481018490526044016020604051808303816000875af1158015610a86573d6000803e3d6000fd5b505050506040513d601f19601f82011682018060405250810190610aaa91906116d8565b610aec5760405162461bcd60e51b8152602060048201526013602482015272151bdad95b881c995d1d5c9b8819985a5b1959606a1b60448201526064016104b1565b60405183907f3d229dd60fc64b0903758feed58453f62e715f5d01dc0978c0a3a312dd2776c290600090a2505050565b610b2461151d565b60008181526002602052604090206006810154421015610b795760405162461bcd60e51b815260206004820152601060248201526f141bdbdb081b9bdd081cdd185c9d195960821b60448201526064016104b1565b8060070154421115610bba5760405162461bcd60e51b815260206004820152600a602482015269141bdbdb08195b99195960b21b60448201526064016104b1565b600a81015460ff16158015610bd95750600a810154610100900460ff16155b610bf55760405162461bcd60e51b81526004016104b190611717565b8060040154341015610c425760405162461bcd60e51b81526020600482015260166024820152752132b637bb9036b4b71031b7b73a3934b13aba34b7b760511b60448201526064016104b1565b8060050154341115610c8f5760405162461bcd60e51b815260206004820152601660248201527520b137bb329036b0bc1031b7b73a3934b13aba34b7b760511b60448201526064016104b1565b60028101546008820154610ca39034611595565b1115610ce45760405162461bcd60e51b815260206004820152601060248201526f12185c990818d85c081c995858da195960821b60448201526064016104b1565b336000908152600b82016020526040812054610d009034611595565b90508160050154811115610d565760405162461bcd60e51b815260206004820152601d60248201527f576f756c6420657863656564206d617820636f6e747269627574696f6e00000060448201526064016104b1565b336000908152600b8301602052604090208190556008820154610d799034611595565b6008830155604051348152339084907fb2ed2e021651f85a4754a44651fc09ac5141bc0329ce4dfe8dd712a5d04a8b3990602001610800565b610dba61151d565b60008181526002602052604090206001546001600160a01b0316331480610e5e5750805460408051638da5cb5b60e01b815290516001600160a01b0390921691638da5cb5b916004808201926020929091908290030181865afa158015610e25573d6000803e3d6000fd5b505050506040513d601f19601f82011682018060405250810190610e4991906116fa565b6001600160a01b0316336001600160a01b0316145b610e9b5760405162461bcd60e51b815260206004820152600e60248201526d139bdd08185d5d1a1bdc9a5e995960921b60448201526064016104b1565b8060070154421180610eb557508060020154816008015410155b610ef75760405162461bcd60e51b815260206004820152601360248201527210d85b9b9bdd08199a5b985b1a5e99481e595d606a1b60448201526064016104b1565b600a81015460ff16158015610f165750600a810154610100900460ff16155b610f325760405162461bcd60e51b81526004016104b190611717565b806003015481600801541015610f815760405162461bcd60e51b815260206004820152601460248201527314dbd99d0818d85c081b9bdd081c995858da195960621b60448201526064016104b1565b600a8101805460ff191660011790556005546008820154600091610fad916127109161058d9190611576565b9050610fc16001546001600160a01b031690565b6001600160a01b03166108fc829081150290604051600060405180830381858888f19350505050158015610ff9573d6000803e3d6000fd5b50815460408051638da5cb5b60e01b815290516001600160a01b0390921691638da5cb5b916004808201926020929091908290030181865afa158015611043573d6000803e3d6000fd5b505050506040513d601f19601f8201168201806040525081019061106791906116fa565b6001600160a01b03166108fc61108a8385600801546115f390919063ffffffff16565b6040518115909202916000818181858888f193505050501580156110b2573d6000803e3d6000fd5b5060405183907f7ed2d5bdf35d4cb790f65d053de7890f1b4a687ac689ca56c23730833531deb090600090a250506106b86001600055565b60006110f461151d565b6001600160a01b03891661113a5760405162461bcd60e51b815260206004820152600d60248201526c24b73b30b634b2103a37b5b2b760991b60448201526064016104b1565b4283116111895760405162461bcd60e51b815260206004820152601c60248201527f53746172742074696d65206d75737420626520696e206675747572650000000060448201526064016104b1565b8282116111e25760405162461bcd60e51b815260206004820152602160248201527f456e642074696d65206d7573742062652061667465722073746172742074696d6044820152606560f81b60648201526084016104b1565b8587116112405760405162461bcd60e51b815260206004820152602660248201527f4861726420636170206d7573742062652067726561746572207468616e20736f60448201526506674206361760d41b60648201526084016104b1565b848410156112905760405162461bcd60e51b815260206004820152601f60248201527f4d617820636f6e747269627574696f6e206d757374206265203e3d206d696e0060448201526064016104b1565b60038054600091826112a18361176f565b909155506000818152600260208190526040822080546001600160a01b0319166001600160a01b038f16178155600181018d90559081018b9055600381018a9055600481018990556005810188905560068101879055600781018690559192506113178b61058d8c670de0b6b3a7640000611576565b82546040516323b872dd60e01b8152336004820152306024820152604481018390529192506001600160a01b0316906323b872dd906064016020604051808303816000875af115801561136e573d6000803e3d6000fd5b505050506040513d601f19601f8201168201806040525081019061139291906116d8565b6113d65760405162461bcd60e51b8152602060048201526015602482015274151bdad95b881d1c985b9cd9995c8819985a5b1959605a1b60448201526064016104b1565b6040516001600160a01b038d169084907f65fc0eb45954044fb55e1b01344d5d72fbfdf88e732d955f73bb7fb2bcc131e990600090a3505060016000559998505050505050505050565b60008281526002602090815260408083206001600160a01b0385168452600b019091529020545b92915050565b6114556114c3565b6001600160a01b0381166114ba5760405162461bcd60e51b815260206004820152602660248201527f4f776e61626c653a206e6577206f776e657220697320746865207a65726f206160448201526564647265737360d01b60648201526084016104b1565b6106b8816115a1565b6001546001600160a01b031633146108265760405162461bcd60e51b815260206004820181905260248201527f4f776e61626c653a2063616c6c6572206973206e6f7420746865206f776e657260448201526064016104b1565b60026000540361156f5760405162461bcd60e51b815260206004820152601f60248201527f5265656e7472616e637947756172643a207265656e7472616e742063616c6c0060448201526064016104b1565b6002600055565b60006115828284611788565b9392505050565b6000611582828461179f565b600061158282846117c1565b600180546001600160a01b038381166001600160a01b0319831681179093556040519116919082907f8be0079c531659141344cd1fd0a4f28419497f9722a3daafe3b4186f6b6457e090600090a35050565b600061158282846117d4565b60006020828403121561161157600080fd5b5035919050565b6001600160a01b03811681146106b857600080fd5b600080600080600080600080610100898b03121561164a57600080fd5b883561165581611618565b9a60208a01359a5060408a013599606081013599506080810135985060a0810135975060c0810135965060e00135945092505050565b6000806040838503121561169e57600080fd5b8235915060208301356116b081611618565b809150509250929050565b6000602082840312156116cd57600080fd5b813561158281611618565b6000602082840312156116ea57600080fd5b8151801515811461158257600080fd5b60006020828403121561170c57600080fd5b815161158281611618565b6020808252600f908201526e506f6f6c206e6f742061637469766560881b604082015260600190565b60006020828403121561175257600080fd5b5051919050565b634e487b7160e01b600052601160045260246000fd5b60006001820161178157611781611759565b5060010190565b808202811582820484141761144757611447611759565b6000826117bc57634e487b7160e01b600052601260045260246000fd5b500490565b8082018082111561144757611447611759565b818103818111156114475761144761175956fea264697066735822122005e9e84165c2c091e13ed80398255b675d7b8f6f7f67d441392ccff3656639cd64736f6c63430008130033",
  "linkReferences": {},
  "deployedLinkReferences": {}
}