{
  "_format": "hh-sol-artifact-1",
  "contractName": "LiquidityLocker",
  "sourceName": "contracts/LiquidityLocker.sol",
  "abi": [
    {
      "inputs": [],
      "stateMutability": "nonpayable",
      "type": "constructor"
    },
    {
      "anonymous": false,
      "inputs": [
        {
          "indexed": true,
          "internalType": "address",
          "name": "token",
          "type": "address"
        },
        {
          "indexed": true,
          "internalType": "address",
          "name": "owner",
          "type": "address"
        },
        {
          "indexed": false,
          "internalType": "uint256",
          "name": "amount",
          "type": "uint256"
        },
        {
          "indexed": false,
          "internalType": "uint256",
          "name": "unlockTime",
          "type": "uint256"
        }
      ],
      "name": "LiquidityLocked",
      "type": "event"
    },
    {
      "anonymous": false,
      "inputs": [
        {
          "indexed": true,
          "internalType": "address",
          "name": "token",
          "type": "address"
        },
        {
          "indexed": true,
          "internalType": "address",
          "name": "owner",
          "type": "address"
        },
        {
          "indexed": false,
          "internalType": "uint256",
          "name": "amount",
          "type": "uint256"
        }
      ],
      "name": "LiquidityUnlocked",
      "type": "event"
    },
    {
      "anonymous": false,
      "inputs": [
        {
          "indexed": true,
          "internalType": "address",
          "name": "previousOwner",
          "type": "address"
        },
        {
          "indexed": true,
          "internalType": "address",
          "name": "newOwner",
          "type": "address"
        }
      ],
      "name": "OwnershipTransferred",
      "type": "event"
    },
    {
      "inputs": [
        {
          "internalType": "address",
          "name": "owner",
          "type": "address"
        }
      ],
      "name": "getLocks",
      "outputs": [
        {
          "components": [
            {
              "internalType": "address",
              "name": "token",
              "type": "address"
            },
            {
              "internalType": "uint256",
              "name": "amount",
              "type": "uint256"
            },
            {
              "internalType": "uint256",
              "name": "unlockTime",
              "type": "uint256"
            },
            {
              "internalType": "bool",
              "name": "isWithdrawn",
              "type": "bool"
            }
          ],
          "internalType": "struct LiquidityLocker.Lock[]",
          "name": "",
          "type": "tuple[]"
        }
      ],
      "stateMutability": "view",
      "type": "function"
    },
    {
      "inputs": [
        {
          "internalType": "address",
          "name": "token",
          "type": "address"
        },
        {
          "internalType": "uint256",
          "name": "amount",
          "type": "uint256"
        },
        {
          "internalType": "uint256",
          "name": "lockDuration",
          "type": "uint256"
        }
      ],
      "name": "lockLiquidity",
      "outputs": [],
      "stateMutability": "nonpayable",
      "type": "function"
    },
    {
      "inputs": [
        {
          "internalType": "address",
          "name": "",
          "type": "address"
        },
        {
          "internalType": "uint256",
          "name": "",
          "type": "uint256"
        }
      ],
      "name": "locks",
      "outputs": [
        {
          "internalType": "address",
          "name": "token",
          "type": "address"
        },
        {
          "internalType": "uint256",
          "name": "amount",
          "type": "uint256"
        },
        {
          "internalType": "uint256",
          "name": "unlockTime",
          "type": "uint256"
        },
        {
          "internalType": "bool",
          "name": "isWithdrawn",
          "type": "bool"
        }
      ],
      "stateMutability": "view",
      "type": "function"
    },
    {
      "inputs": [],
      "name": "owner",
      "outputs": [
        {
          "internalType": "address",
          "name": "",
          "type": "address"
        }
      ],
      "stateMutability": "view",
      "type": "function"
    },
    {
      "inputs": [],
      "name": "renounceOwnership",
      "outputs": [],
      "stateMutability": "nonpayable",
      "type": "function"
    },
    {
      "inputs": [
        {
          "internalType": "address",
          "name": "newOwner",
          "type": "address"
        }
      ],
      "name": "transferOwnership",
      "outputs": [],
      "stateMutability": "nonpayable",
      "type": "function"
    },
    {
      "inputs": [
        {
          "internalType": "uint256",
          "name": "lockIndex",
          "type": "uint256"
        }
      ],
      "name": "unlockLiquidity",
      "outputs": [],
      "stateMutability": "nonpayable",
      "type": "function"
    }
  ],
  "bytecode": "0x608060405234801561001057600080fd5b5061001a33610023565b60018055610073565b600080546001600160a01b038381166001600160a01b0319831681178455604051919092169283917f8be0079c531659141344cd1fd0a4f28419497f9722a3daafe3b4186f6b6457e09190a35050565b6109fe806100826000396000f3fe608060405234801561001057600080fd5b506004361061007d5760003560e01c806396e839241161005b57806396e83924146100d0578063b425f802146100e3578063ce144e0a14610122578063f2fde38b1461013557600080fd5b8063715018a614610082578063719f30891461008c5780638da5cb5b146100b5575b600080fd5b61008a610148565b005b61009f61009a366004610862565b61015c565b6040516100ac9190610884565b60405180910390f35b6000546040516001600160a01b0390911681526020016100ac565b61008a6100de3660046108f3565b610201565b6100f66100f136600461090c565b610422565b604080516001600160a01b039095168552602085019390935291830152151560608201526080016100ac565b61008a610130366004610936565b610475565b61008a610143366004610862565b6106cd565b610150610743565b61015a600061079d565b565b6001600160a01b0381166000908152600260209081526040808320805482518185028101850190935280835260609492939192909184015b828210156101f6576000848152602090819020604080516080810182526004860290920180546001600160a01b03168352600180820154848601526002820154928401929092526003015460ff16151560608301529083529092019101610194565b505050509050919050565b6102096107ed565b3360009081526002602052604090208054821061026d5760405162461bcd60e51b815260206004820152601e60248201527f496e64657820646520766572726f75696c6c61676520696e76616c696465000060448201526064015b60405180910390fd5b600081838154811061028157610281610969565b60009182526020909120600490910201600381015490915060ff16156102e25760405162461bcd60e51b81526020600482015260166024820152754c69717569646974652064656a61207265746972656560501b6044820152606401610264565b80600201544210156103425760405162461bcd60e51b8152602060048201526024808201527f506572696f646520646520766572726f75696c6c616765206e6f6e207465726d604482015263696e656560e01b6064820152608401610264565b60038101805460ff1916600190811790915581549082015460405163a9059cbb60e01b815233600482015260248101919091526001600160a01b039091169063a9059cbb906044016020604051808303816000875af11580156103a9573d6000803e3d6000fd5b505050506040513d601f19601f820116820180604052508101906103cd919061097f565b508054600182015460405190815233916001600160a01b0316907fae1e3f55a3bd49028dc8c60076591b54e799245355498a82b672a16a0561fadc9060200160405180910390a3505061041f60018055565b50565b6002602052816000526040600020818154811061043e57600080fd5b600091825260209091206004909102018054600182015460028301546003909301546001600160a01b039092169450925060ff1684565b61047d6107ed565b6001600160a01b0383166104cc5760405162461bcd60e51b81526020600482015260166024820152754164726573736520746f6b656e20696e76616c69646560501b6044820152606401610264565b6000821161051c5760405162461bcd60e51b815260206004820152601f60248201527f4d6f6e74616e7420646f697420657472652073757065726965757220612030006044820152606401610264565b6000811161056c5760405162461bcd60e51b815260206004820152601e60248201527f447572656520646520766572726f75696c6c61676520696e76616c69646500006044820152606401610264565b6040516323b872dd60e01b8152336004820152306024820152604481018390526001600160a01b038416906323b872dd906064016020604051808303816000875af11580156105bf573d6000803e3d6000fd5b505050506040513d601f19601f820116820180604052508101906105e3919061097f565b5060006105f082426109a1565b33600081815260026020818152604080842081516080810183526001600160a01b038c81168083528286018d81528386018b8152606085018a8152865460018082018955978c529a89902095516004909b0290950180546001600160a01b0319169a909416999099178355519382019390935595519486019490945592516003909401805460ff191694151594909417909355825188815290810185905293945091927f59d86badba9ed0836e2f7433321f97c74d9825a883e2315b54e1a86177795486910160405180910390a3506106c860018055565b505050565b6106d5610743565b6001600160a01b03811661073a5760405162461bcd60e51b815260206004820152602660248201527f4f776e61626c653a206e6577206f776e657220697320746865207a65726f206160448201526564647265737360d01b6064820152608401610264565b61041f8161079d565b6000546001600160a01b0316331461015a5760405162461bcd60e51b815260206004820181905260248201527f4f776e61626c653a2063616c6c6572206973206e6f7420746865206f776e65726044820152606401610264565b600080546001600160a01b038381166001600160a01b0319831681178455604051919092169283917f8be0079c531659141344cd1fd0a4f28419497f9722a3daafe3b4186f6b6457e09190a35050565b60026001540361083f5760405162461bcd60e51b815260206004820152601f60248201527f5265656e7472616e637947756172643a207265656e7472616e742063616c6c006044820152606401610264565b6002600155565b80356001600160a01b038116811461085d57600080fd5b919050565b60006020828403121561087457600080fd5b61087d82610846565b9392505050565b602080825282518282018190526000919060409081850190868401855b828110156108e657815180516001600160a01b0316855286810151878601528581015186860152606090810151151590850152608090930192908501906001016108a1565b5091979650505050505050565b60006020828403121561090557600080fd5b5035919050565b6000806040838503121561091f57600080fd5b61092883610846565b946020939093013593505050565b60008060006060848603121561094b57600080fd5b61095484610846565b95602085013595506040909401359392505050565b634e487b7160e01b600052603260045260246000fd5b60006020828403121561099157600080fd5b8151801515811461087d57600080fd5b808201808211156109c257634e487b7160e01b600052601160045260246000fd5b9291505056fea26469706673582212207138fa6408fca78e6800acb3a876adf6feab4ff4f66d786e6e467923b9dd4c8764736f6c63430008130033",
  "linkReferences": {},
  "deployedLinkReferences": {}
}