{
  "_format": "hh-sol-artifact-1",
  "contractName": "TokenForgeStaking",
  "sourceName": "contracts/TokenForgeStaking.sol",
  "abi": [
    {
      "inputs": [
        {
          "internalType": "address",
          "name": "_stakingToken",
          "type": "address"
        }
      ],
      "stateMutability": "nonpayable",
      "type": "constructor"
    },
    {
      "anonymous": false,
      "inputs": [
        {
          "indexed": true,
          "internalType": "address",
          "name": "previousOwner",
          "type": "address"
        },
        {
          "indexed": true,
          "internalType": "address",
          "name": "newOwner",
          "type": "address"
        }
      ],
      "name": "OwnershipTransferred",
      "type": "event"
    },
    {
      "anonymous": false,
      "inputs": [
        {
          "indexed": true,
          "internalType": "address",
          "name": "user",
          "type": "address"
        },
        {
          "indexed": false,
          "internalType": "uint256",
          "name": "amount",
          "type": "uint256"
        }
      ],
      "name": "RewardsClaimed",
      "type": "event"
    },
    {
      "anonymous": false,
      "inputs": [
        {
          "indexed": true,
          "internalType": "address",
          "name": "user",
          "type": "address"
        },
        {
          "indexed": false,
          "internalType": "uint256",
          "name": "amount",
          "type": "uint256"
        }
      ],
      "name": "Staked",
      "type": "event"
    },
    {
      "anonymous": false,
      "inputs": [
        {
          "indexed": true,
          "internalType": "address",
          "name": "user",
          "type": "address"
        },
        {
          "indexed": false,
          "internalType": "uint256",
          "name": "amount",
          "type": "uint256"
        }
      ],
      "name": "Withdrawn",
      "type": "event"
    },
    {
      "inputs": [],
      "name": "MINIMUM_STAKE_TIME",
      "outputs": [
        {
          "internalType": "uint256",
          "name": "",
          "type": "uint256"
        }
      ],
      "stateMutability": "view",
      "type": "function"
    },
    {
      "inputs": [
        {
          "internalType": "address",
          "name": "_user",
          "type": "address"
        }
      ],
      "name": "calculateRewards",
      "outputs": [
        {
          "internalType": "uint256",
          "name": "",
          "type": "uint256"
        }
      ],
      "stateMutability": "view",
      "type": "function"
    },
    {
      "inputs": [],
      "name": "claimRewards",
      "outputs": [],
      "stateMutability": "nonpayable",
      "type": "function"
    },
    {
      "inputs": [],
      "name": "getPoolInfo",
      "outputs": [
        {
          "internalType": "uint256",
          "name": "totalStaked",
          "type": "uint256"
        },
        {
          "internalType": "uint256",
          "name": "rewardRate",
          "type": "uint256"
        },
        {
          "internalType": "uint256",
          "name": "lastUpdateTime",
          "type": "uint256"
        }
      ],
      "stateMutability": "view",
      "type": "function"
    },
    {
      "inputs": [
        {
          "internalType": "address",
          "name": "_user",
          "type": "address"
        }
      ],
      "name": "getUserStake",
      "outputs": [
        {
          "internalType": "uint256",
          "name": "amount",
          "type": "uint256"
        },
        {
          "internalType": "uint256",
          "name": "since",
          "type": "uint256"
        },
        {
          "internalType": "uint256",
          "name": "claimedRewards",
          "type": "uint256"
        }
      ],
      "stateMutability": "view",
      "type": "function"
    },
    {
      "inputs": [],
      "name": "owner",
      "outputs": [
        {
          "internalType": "address",
          "name": "",
          "type": "address"
        }
      ],
      "stateMutability": "view",
      "type": "function"
    },
    {
      "inputs": [],
      "name": "renounceOwnership",
      "outputs": [],
      "stateMutability": "nonpayable",
      "type": "function"
    },
    {
      "inputs": [
        {
          "internalType": "uint256",
          "name": "_newRate",
          "type": "uint256"
        }
      ],
      "name": "setRewardRate",
      "outputs": [],
      "stateMutability": "nonpayable",
      "type": "function"
    },
    {
      "inputs": [
        {
          "internalType": "uint256",
          "name": "_amount",
          "type": "uint256"
        }
      ],
      "name": "stake",
      "outputs": [],
      "stateMutability": "nonpayable",
      "type": "function"
    },
    {
      "inputs": [],
      "name": "stakingPool",
      "outputs": [
        {
          "internalType": "uint256",
          "name": "rewardRate",
          "type": "uint256"
        },
        {
          "internalType": "uint256",
          "name": "totalStaked",
          "type": "uint256"
        },
        {
          "internalType": "uint256",
          "name": "lastUpdateTime",
          "type": "uint256"
        }
      ],
      "stateMutability": "view",
      "type": "function"
    },
    {
      "inputs": [],
      "name": "stakingToken",
      "outputs": [
        {
          "internalType": "contract IERC20",
          "name": "",
          "type": "address"
        }
      ],
      "stateMutability": "view",
      "type": "function"
    },
    {
      "inputs": [
        {
          "internalType": "address",
          "name": "newOwner",
          "type": "address"
        }
      ],
      "name": "transferOwnership",
      "outputs": [],
      "stateMutability": "nonpayable",
      "type": "function"
    },
    {
      "inputs": [
        {
          "internalType": "uint256",
          "name": "_amount",
          "type": "uint256"
        }
      ],
      "name": "withdraw",
      "outputs": [],
      "stateMutability": "nonpayable",
      "type": "function"
    }
  ],
  "bytecode": "0x608060405234801561001057600080fd5b50604051610b69380380610b6983398101604081905261002f916100c3565b600160005561003d33610071565b600280546001600160a01b0319166001600160a01b039290921691909117905566038d7ea4c68000600355426005556100f3565b600180546001600160a01b038381166001600160a01b0319831681179093556040519116919082907f8be0079c531659141344cd1fd0a4f28419497f9722a3daafe3b4186f6b6457e090600090a35050565b6000602082840312156100d557600080fd5b81516001600160a01b03811681146100ec57600080fd5b9392505050565b610a67806101026000396000f3fe608060405234801561001057600080fd5b50600436106100cf5760003560e01c806372f702f31161008c5780639e447fc6116100665780639e447fc6146101a0578063a694fc3a146101b3578063bbadc93a146101c6578063f2fde38b146101fc57600080fd5b806372f702f31461015a5780638b70e604146101855780638da5cb5b1461018f57600080fd5b80630c56ae3b146100d45780632e1a7d4d14610106578063372500ab1461011b57806360246c881461012357806364ab867514610131578063715018a614610152575b600080fd5b6003546004546005546100e692919083565b604080519384526020840192909252908201526060015b60405180910390f35b61011961011436600461094b565b61020f565b005b61011961041e565b6004546003546005546100e6565b61014461013f366004610964565b610566565b6040519081526020016100fd565b6101196105f3565b60025461016d906001600160a01b031681565b6040516001600160a01b0390911681526020016100fd565b6101446201518081565b6001546001600160a01b031661016d565b6101196101ae36600461094b565b610605565b6101196101c136600461094b565b61061b565b6100e66101d4366004610964565b6001600160a01b03166000908152600660205260409020805460018201546002909201549092565b61011961020a366004610964565b6107d0565b610217610846565b3360009081526006602052604090208115801590610236575080548211155b6102785760405162461bcd60e51b815260206004820152600e60248201526d125b9d985b1a5908185b5bdd5b9d60921b60448201526064015b60405180910390fd5b62015180816001015461028b91906109aa565b4210156102d35760405162461bcd60e51b815260206004820152601660248201527514dd185ada5b99c81c195c9a5bd9081b9bdd081b595d60521b604482015260640161026f565b6102dc42600555565b6102e461041e565b81600360010160008282546102f991906109c3565b90915550508054829082906000906103129084906109c3565b9091555050805460000361032857600060018201555b60025460405163a9059cbb60e01b8152336004820152602481018490526001600160a01b039091169063a9059cbb906044016020604051808303816000875af1158015610379573d6000803e3d6000fd5b505050506040513d601f19601f8201168201806040525081019061039d91906109d6565b6103db5760405162461bcd60e51b815260206004820152600f60248201526e15da5d1a191c985dc819985a5b1959608a1b604482015260640161026f565b60405182815233907f7084f5476618d8e60b11ef0d7d3f06914655adb8793e28ff7f018d4c76d505d59060200160405180910390a25061041b6001600055565b50565b610426610846565b61042f42600555565b600061043a33610566565b905080156105595733600090815260066020526040812060020180548392906104649084906109aa565b909155505060025460405163a9059cbb60e01b8152336004820152602481018390526001600160a01b039091169063a9059cbb906044016020604051808303816000875af11580156104ba573d6000803e3d6000fd5b505050506040513d601f19601f820116820180604052508101906104de91906109d6565b6105235760405162461bcd60e51b815260206004820152601660248201527514995dd85c99081d1c985b9cd9995c8819985a5b195960521b604482015260640161026f565b60405181815233907ffc30cddea38e2bf4d6ea7d3f9ed3b6ad7f176419f4963bd81318067a4aee73fe9060200160405180910390a25b506105646001600055565b565b6001600160a01b03811660009081526006602052604081208054820361058f5750600092915050565b60008160010154426105a191906109c3565b90506000670de0b6b3a76400008260036000015485600001546105c491906109f8565b6105ce91906109f8565b6105d89190610a0f565b90508260020154816105ea91906109c3565b95945050505050565b6105fb61089f565b61056460006108f9565b61060d61089f565b61061642600555565b600355565b610623610846565b600081116106645760405162461bcd60e51b815260206004820152600e60248201526d043616e6e6f74207374616b6520360941b604482015260640161026f565b61066d42600555565b806003600101600082825461068291906109aa565b909155505033600090815260066020526040812080548392906106a69084906109aa565b90915550503360009081526006602052604081206001015490036106db57336000908152600660205260409020426001909101555b6002546040516323b872dd60e01b8152336004820152306024820152604481018390526001600160a01b03909116906323b872dd906064016020604051808303816000875af1158015610732573d6000803e3d6000fd5b505050506040513d601f19601f8201168201806040525081019061075691906109d6565b6107915760405162461bcd60e51b815260206004820152600c60248201526b14dd185ad94819985a5b195960a21b604482015260640161026f565b60405181815233907f9e71bc8eea02a63969f509818f2dafb9254532904319f9dbda79b67bd34a5f3d9060200160405180910390a261041b6001600055565b6107d861089f565b6001600160a01b03811661083d5760405162461bcd60e51b815260206004820152602660248201527f4f776e61626c653a206e6577206f776e657220697320746865207a65726f206160448201526564647265737360d01b606482015260840161026f565b61041b816108f9565b6002600054036108985760405162461bcd60e51b815260206004820152601f60248201527f5265656e7472616e637947756172643a207265656e7472616e742063616c6c00604482015260640161026f565b6002600055565b6001546001600160a01b031633146105645760405162461bcd60e51b815260206004820181905260248201527f4f776e61626c653a2063616c6c6572206973206e6f7420746865206f776e6572604482015260640161026f565b600180546001600160a01b038381166001600160a01b0319831681179093556040519116919082907f8be0079c531659141344cd1fd0a4f28419497f9722a3daafe3b4186f6b6457e090600090a35050565b60006020828403121561095d57600080fd5b5035919050565b60006020828403121561097657600080fd5b81356001600160a01b038116811461098d57600080fd5b9392505050565b634e487b7160e01b600052601160045260246000fd5b808201808211156109bd576109bd610994565b92915050565b818103818111156109bd576109bd610994565b6000602082840312156109e857600080fd5b8151801515811461098d57600080fd5b80820281158282048414176109bd576109bd610994565b600082610a2c57634e487b7160e01b600052601260045260246000fd5b50049056fea2646970667358221220f6e0c1214c36caa70ba3cb0f2a54f0eef3d3f09f4043f8db2bd6ccad954f0acb64736f6c63430008130033",
  "linkReferences": {},
  "deployedLinkReferences": {}
}